:020000040800F2
:100000007006002095010008990100089B01000876
:100010009D0100089F010008A101000800000000E8
:10002000000000000000000000000000A301000824
:10003000A501000800000000A7010008A9010008B0
:10004000AB010008AB010008AB010008AB010008E0
:10005000AB010008AB010008AB010008AB010008D0
:10006000AB010008AB010008AB010008AB010008C0
:10007000AB010008AB010008AB010008AB010008B0
:10008000AB010008AB010008AB010008AB010008A0
:10009000AB010008AB010008AB010008AB01000890
:1000A000AB010008AB010008AB010008AB01000880
:1000B000AB01000851070008AB010008AB010008C4
:1000C000AB010008AB010008AB010008AB01000860
:1000D000AB010008AB010008AB010008AB01000850
:1000E000AB010008AB010008AB01000800F002F80A
:1000F00000F03AF80AA090E8000C82448344AAF188
:100100000107DA4501D100F02FF8AFF2090EBAE885
:100110000F0013F0010F18BFFB1A43F0010318473B
:10012000E00C0000000D0000103A24BF78C878C130
:10013000FAD8520724BF30C830C144BF04680C60ED
:10014000704700000023002400250026103A28BF35
:1001500078C1FBD8520728BF30C148BF0B60704739
:100160001FB51FBD10B510BD00F060FB1146FFF7B5
:10017000F7FF00F02BF800F092FB03B4FFF7F2FF5B
:1001800003BC00F007FA000030BF72B662B680F31D
:100190000888704708480047FEE7FEE7FEE7FEE7ED
:1001A000FEE7FEE7FEE7FEE7FEE7FEE70348044959
:1001B000044A054B70470000ED0000087000002065
:1001C000700600207002002070020020092000F05C
:1001D00088F9482000F028F84FF4FA6000F05CF845
:1001E00000F080FA00F062FA4FF4E131482000F0AC
:1001F000FAF910E00848007868B100200649087054
:100200000648006808B9012000E0002003490860A2
:1002100003A000F0CDFAEDE70A000020B40122426D
:1002200052756E6E696E67004FF0E021096921F02A
:1002300004014FF0E0221161C21700EB5272C2F3C9
:10024000C702234B1A701946097801EB4102C2EB31
:10025000C1114FF6FF7202EAC1011E4A11807047B8
:1002600001461B4A12784A434FF0E0235A610022AC
:100270009A6101221A6100BF4FF0E022106900F07C
:1002800001021AB100F48032002AF5D000224FF0AA
:10029000E0231A619A61704701460E4A12884A4368
:1002A0004FF0E0235A6100229A6101221A6100BFD7
:1002B0004FF0E022106900F001021AB100F4803220
:1002C000002AF5D000224FF0E0231A619A617047AE
:1002D0000000002002000020A34A0A400243A34B72
:1002E0001A6070470146072323EA010212029F4B5E
:1002F0001B1D18684FF6FF0318409D4B1843104311
:100300009A4B1B1D186070472DE9F041074688463F
:1003100014461D462846FFF7E5FFC5F1040007FA1D
:1003200000F60F20284100EA0800064306F00F06F9
:10033000E21704EBD2625211920002F1E022D2F8ED
:1003400000212146E31704EBD3635B11A4EB431CAC
:10035000012303FA0CF31A432046E31704EBD3639B
:100360005B119B0003F1E023C3F800218148005D8D
:1003700040EA06107F490855BDE8F08170B5044693
:100380000B46CE1701EB9676C6F38700CE1701EB2E
:100390009676B610A1EB8606B606350E764B9B69AF
:1003A00043F00103744EB3614FEAB63353F8203083
:1003B0000F26AE40B343714E46F82030334653F813
:1003C000203004FA05F61E436C4B43F820606C4B5A
:1003D0001B6801268E403343694E336002F00103EF
:1003E00043B1674B0C331B6801268E403343644E88
:1003F0000C36336002F0020343B1614B08331E68D0
:1004000001238B401E435E4B08331E6070BD00B558
:10041000002059490861C8601420486100208861A3
:10042000C8610846006840F001000860084640685E
:1004300054490840504948600846006852490840FD
:100440004D4908600846006820F48020086008468E
:10045000406820F4FE0048600020886000214FF0D2
:100460000060FFF739FF00BD10B540480830006854
:1004700040F004003D49083108603F48C06940F041
:1004800080503D49C8614148406840F480703F4910
:1004900048600846006840F00400086008460068AC
:1004A00040F002000860FFF76FFE10BD3048001DED
:1004B0002E49091D08607047014649062E4A926977
:1004C00042F001022C4B9A612C4A083A526822F001
:1004D000E0622A4B083B5A601A4652680A435A6047
:1004E000704730B504460025FFF791FF22480068A9
:1004F00040F480302049086000BF1F480068400C6D
:100500000028FAD04FF480601B494860A01EC4B296
:100510000846406840EA844048600846406840F425
:10052000803048601A48006840F03200184908607E
:100530001148006840F080700F49086000BF0E4805
:100540000068400E0028FAD00B48406840F00200D6
:100550000949486005E008484068C0F3870505F090
:100560000305022DF7D130BD80FFFF1F08ED00E02D
:100570000000FA0500E400E000100240080001401D
:10058000000401400000FFF8FFFFF6FE007000408D
:1005900000200240014600BF0020704700BF3F4AD4
:1005A000128802F04002002AF9D0C2B23B4B1B1D58
:1005B0001A8070473949091D088000BF37490988EA
:1005C00001F040010029F9D0704700B502460B4602
:1005D00003E01078FFF7EEFF521C181EA3F1010193
:1005E000CBB2F6D100BD2DE9F05F05460E463001D5
:1005F00000F0A6FA81462A4905FB01F000F0A0FAB6
:100600008246494600F0BAF90746384600F078FAC3
:1006100084B2204600F094FA8346394600F070FB1D
:1006200082464FF0834100F09FFA814600F068FA5D
:1006300080464FF6FF7000EA041404EB080084B211
:100640001848806940F004001649886108468069AE
:1006500040F4804088611448006820F47F601249AB
:1006600008600846006840F40B6008600D48C068E8
:1006700040F480400B49C8600846C06820F48040C0
:10068000C860064808300480001D008842F20C0152
:10069000084302490C310880BDE8F09F0038014052
:1006A00040420F0000100240040801400B488069DE
:1006B00040F01000094988610948406820F4700042
:1006C000074948600846406840F4401048600846C2
:1006D000C06840F40050C86070470000001002403D
:1006E0000010014010B52C48C06940F002002A49B2
:1006F000C86141F61F40294908803120091D088042
:1007000000202649091F088024482838008840F026
:10071000800022492839088020481C38008840F091
:1007200001001E491C3908800846008840F040003E
:1007300008801A482838008840F0010017492839F5
:10074000088000231D2203210120FFF7DDFD10BDDD
:10075000124818380088E8B100201049183908807C
:1007600001200F4908700F480078401C0D4908709F
:1007700008460078642190FBF1F201FB120010B9E9
:1007800001200949087007480078C82802D10020D4
:10079000044908707047000000100240280400401F
:1007A00009000020080000200A0000207047000017
:1007B0000FB4044910B503AA029800F009F810BC60
:1007C0005DF814FB040000207047704770477047C5
:1007D000074B70B50D467B4400F011F804462846DF
:1007E00000F020F810B14FF0FF3070BD204670BD12
:1007F000C3FDFFFF01694A1C02610878704700B51C
:100800008FB0CDE901310021059105497944CDE949
:1008100003101146684600F02EF80FB000BD00002E
:10082000E5FFFFFF007B00F080007047754600F099
:100830003FF8AE4605006946534620F0070085465E
:1008400018B020B5FFF7B2FCBDE820404FF000061D
:100850004FF000074FF000084FF0000B21F00701A8
:10086000AC46ACE8C009ACE8C009ACE8C009ACE8EB
:10087000C0098D4670472DE9F04106460024D6E9AF
:100880000170F5688046304603E04146B847641C75
:100890003046A8470028F8D12046BDE8F08110B5C1
:1008A0000446AFF300802046BDE81040FFF765BC6A
:1008B000004870470C00002090EA010F48BF81F00B
:1008C000004100F12E82421A3CBF801A89184FEA7B
:1008D000D0524FF07F4C1CEA410FA2EBD15318BF0E
:1008E0009CEA026F00F03B804FF0004C4CEA002085
:1008F0004CEA012121FA03FC10EB0C0C1ED202F190
:10090000FF325FEA1C2040EBC25038BF70471CF03A
:100910007F0F4FEA400C18BFBCF17F4F38BF7047C4
:10092000C3F12003994008BF20F00100BCF17F4FC4
:1009300038BF7047A0F1C04000F0DDB94FEA3C007D
:10094000000A40EBC25028BF1CF0FF0F4FEA400CDA
:10095000E6D018BFBCF17F4F38BF7047EAE79CEA8A
:10096000026F05D010EA5C0F08BF00F0004070472E
:1009700010B500F07AF900BF64FBBE3E4FF47F0C67
:100980001CEAD0121EBF1CEAD11392EA0C0F93EAA4
:100990000C0F00F0858090EA010F48BF42F480728E
:1009A00040F4000C41F400002CF07F4120F07F4027
:1009B00000B58142A2EB03020FF2081CACEB504ED3
:1009C000C0F100009EF800E04FEA4E0E00FB0EFC66
:1009D00038BF49004FEA2C1C02F5FA020CFB0EF35B
:1009E0004FEACE1E4FEA112C4FEAC1210EEB635E97
:1009F00042EB22420EFB0CFC4FEA1C5300FB03119E
:100A00004FEA112C4FEA01310EFB0CFC4FEADC4C93
:100A100000FB0C11C14228BF09184CEB03335DF8F1
:100A200004EB10EB410143EBC250B2F57C0F38BF31
:100A3000704729D512F0F00F1CBF00F1C04000F044
:100A400000407047008182838485868788898B8CEB
:100A50008D8E8F919293959697999A9C9D9FA0A227
:100A6000A3A5A7A8AAACAEB0B2B3B5B7B9BCBEC077
:100A7000C2C5C7C9CCCED1D4D7D9DCDFE2E6E9EC18
:100A8000F0F3F7FAFE0000004FEA400C0CF1807C16
:100A9000BCF17E4F28BF7047B0F1C04000F02BB9C9
:100AA00090EA010F0CEAD11348BF42F4807262450C
:100AB00038BF634507D213F47F0F16D080EA0100D8
:100AC00000F00040704710B500F0CFF8097EFC3E02
:100AD00000F005B880EA010000F00040704780EAAD
:100AE000010000F0004000F006B912F47F0F04BFCF
:100AF0000248704780EA010000F0FDB80000C07FA6
:100B0000C10DD1F19E0206DB4FEA002343F0004302
:100B100023FA02F07047004207D54FEA4001B1F1D5
:100B2000FE4F02D24FF00000704710B500F09DF864
:100B300049922480002070476FEA2000704700002F
:100B4000B0FA80F310FA03F2C3F19D030AD0D9057D
:100B500001EB1220530638BF704700F1010008BFB7
:100B600020F00100704700004FF47F0C1CEAD01207
:100B70001EBF1CEAD11392EA0C0F93EA0C0F00F08F
:100B8000478090EA010F48BF42F480724FF0004C5A
:100B90004CEA00204CEA012102EB0302A0FB011306
:100BA000A2F50002002918BF43F001035B0028BF33
:100BB0004FEA330342EB22425FEA132C4CEBC25064
:100BC0002EBFBCEB436FB2F57C0F70474FEA036C4E
:100BD000BCF1004F08BF20F00100B2F57C0F38BF18
:100BE00070470BD582F0FF0212F5803FC8BF7047F7
:100BF00000F1C040D8BF00F00040704700F5000C85
:100C00005FEA4C0C48BF7047B0F1C04000F073B8C9
:100C100090EA010F0CEAD11348BF42F4807262459A
:100C200038BF634504D280EA010000F000407047FD
:100C300010B500F01AF800BF8900013E00F007B8B7
:100C400000F009B85FEA410C5FEA1C6C08D080EA4A
:100C5000010000F050B85FEA400C5FEA1C6CF6D16E
:100C60004FF00040A0F5800070470EF1020E2EF00C
:100C7000030E5EF8044B244204D44FEA4102B2F161
:100C80007F4F11D84FEA4003B3F17F4F0CD80ED1FC
:100C90004FEAD07CB2F17F4F0CEB4C0C0CF1020C04
:100CA00008BF4CEBD17C04E04FF0080C01E04FEAA8
:100CB000D17C0CEB4C0324FA03F404F00704B4F1E8
:100CC000040C06D20EEB840CBDE810404CF0010C75
:100CD0006047DFE80CF0070802024FF00040A0F583
:100CE000800010BD0846420018BFD2F1807288BF54
:100CF00000F0004010BDFF2141EAD050C005704710
:100D000080F0004090EA010F7FF5DDAD81F00041F9
:100D100000F007B890EA010F48BF81F000413FF5AD
:100D2000D2AD421A04D882F00042A0EB0200114476
:100D30004FEAD0524FF07F4C1CEA410FA2EBD15347
:100D400018BF9CEA026F4AD04FF0004C4CEA0020DA
:100D50004CEA012121FA03FCB0EB0C0C0FD412F089
:100D6000FE0F36D05FEA4C001DD5001240EBC2509A
:100D700038BF70471CF03F0F18BF70470BE0A2F15F
:100D800001025FEA1C2040EBC25038BF70471CF0E4
:100D90007F0F18BF7047C3F12003994014BF401E56
:100DA00020F00100704780084FEA122308BF704707
:100DB000B0FA80FCA2EB0C02CCF1280C60FA0CF02B
:100DC00093EA122F04BF00EBC25070474FEAC37082
:100DD0007047130A5FEADC1008BF7047F6E79CEA29
:100DE000026F04D010EA5C0F08BF0020704710B5F6
:100DF000FFF73BFF40DFF63E81F000407047000008
:100E0000200E0008000000200C000000280100084F
:100E10002C0E00080C0000206406000044010008AD
:0C0E2000000000000000000000000000C6
:04000005080000ED02
:00000001FF
