:020000040800F2
:10000000780600209D010008A1010008A301000856
:10001000A5010008A7010008A901000800000000D0
:10002000000000000000000000000000AB0100081C
:10003000AD01000800000000AF010008B101000898
:10004000B3010008B3010008B3010008B3010008C0
:10005000B3010008B3010008B3010008B3010008B0
:10006000B3010008B3010008B3010008B3010008A0
:10007000B3010008B3010008B3010008B301000890
:10008000B3010008B3010008B3010008B301000880
:10009000B3010008B3010008B3010008B301000870
:1000A000B301000871070008B3010008B30100089C
:1000B000B3010008B3010008B3010008B301000850
:1000C000B3010008B3010008B3010008B301000840
:1000D000B3010008B3010008B3010008B301000830
:1000E000B3010008B3010008B301000800F002F8F2
:1000F00000F03FF80AA090E8000C82448344AAF183
:100100000107DA4501D100F034F8AFF2090EBAE880
:100110000F0013F0010F18BFFB1A43F0010318473B
:1001200080140000A0140000103A24BF78C878C1E1
:10013000FAD8520724BF30C830C144BF04680C60ED
:10014000704700000023002400250026103A28BF35
:1001500078C1FBD8520728BF30C148BF0B60704739
:10016000642900F07F86002070471FB51FBD10B5C1
:1001700010BD00F03FFF1146FFF7F7FF00F02AF82F
:1001800000F05DFF03B4FFF7F2FF03BC00F012FACA
:1001900030BF72B662B680F30888704708480047DF
:1001A000FEE7FEE7FEE7FEE7FEE7FEE7FEE7FEE727
:1001B000FEE7FEE703480449044A054B7047000088
:1001C000ED0000087800002078060020780200206A
:1001D00078020020092000F094F9482000F034F85B
:1001E0004FF4FA6000F068F800F08CFA00F06EFA54
:1001F0004FF4E131482000F006FA00F0E7FA6420FD
:1002000000F05AF800F068FD12E00A48007878B172
:100210000020084908700848006808B9012000E07B
:1002200000200549086000F0B4FD04A000F0DAFDEC
:10023000EBE700000A000020B401224252756E6E06
:10024000696E670A000000004FF0E021096921F0A3
:1002500004014FF0E0221161C21700EB5272C2F3A9
:10026000C702234B1A701946097801EB4102C2EB11
:10027000C1114FF6FF7202EAC1011E4A1180704798
:1002800001461B4A12784A434FF0E0235A6100228C
:100290009A6101221A6100BF4FF0E022106900F05C
:1002A00001021AB100F48032002AF5D000224FF08A
:1002B000E0231A619A61704701460E4A12884A4348
:1002C0004FF0E0235A6100229A6101221A6100BFB7
:1002D0004FF0E022106900F001021AB100F4803200
:1002E000002AF5D000224FF0E0231A619A6170478E
:1002F0000000002002000020A34A0A400243A34B52
:100300001A6070470146072323EA010212029F4B3D
:100310001B1D18684FF6FF0318409D4B18431043F0
:100320009A4B1B1D186070472DE9F041074688461F
:1003300014461D462846FFF7E5FFC5F1040007FAFD
:1003400000F60F20284100EA0800064306F00F06D9
:10035000E21704EBD2625211920002F1E022D2F8CD
:1003600000212146E31704EBD3635B11A4EB431C8C
:10037000012303FA0CF31A432046E31704EBD3637B
:100380005B119B0003F1E023C3F800218148005D6D
:1003900040EA06107F490855BDE8F08170B5044673
:1003A0000B46CE1701EB9676C6F38700CE1701EB0E
:1003B0009676B610A1EB8606B606350E764B9B698F
:1003C00043F00103744EB3614FEAB63353F8203063
:1003D0000F26AE40B343714E46F82030334653F8F3
:1003E000203004FA05F61E436C4B43F820606C4B3A
:1003F0001B6801268E403343694E336002F00103CF
:1004000043B1674B0C331B6801268E403343644E67
:100410000C36336002F0020343B1614B08331E68AF
:1004200001238B401E435E4B08331E6070BD00B538
:10043000002059490861C860142048610020886183
:10044000C8610846006840F001000860084640683E
:1004500054490840504948600846006852490840DD
:100460004D4908600846006820F48020086008466E
:10047000406820F4FE0048600020886000214FF0B2
:100480000060FFF739FF00BD10B540480830006834
:1004900040F004003D49083108603F48C06940F021
:1004A00080503D49C8614148406840F480703F49F0
:1004B00048600846006840F004000860084600688C
:1004C00040F002000860FFF763FE10BD3048001DD9
:1004D0002E49091D08607047014649062E4A926957
:1004E00042F001022C4B9A612C4A083A526822F0E1
:1004F000E0622A4B083B5A601A4652680A435A6027
:10050000704730B504460025FFF791FF2248006888
:1005100040F480302049086000BF1F480068400C4C
:100520000028FAD04FF480601B494860A01EC4B276
:100530000846406840EA844048600846406840F405
:10054000803048601A48006840F03200184908605E
:100550001148006840F080700F49086000BF0E48E5
:100560000068400E0028FAD00B48406840F00200B6
:100570000949486005E008484068C0F3870505F070
:100580000305022DF7D130BD80FFFF1F08ED00E00D
:100590000000FA0500E400E00010024008000140FD
:1005A000000401400000FFF8FFFFF6FE007000406D
:1005B00000200240014600BF0020704700BF3F4AB4
:1005C000128802F04002002AF9D0C2B23B4B1B1D38
:1005D0001A8070473949091D088000BF37490988CA
:1005E00001F040010029F9D0704700B502460B46E2
:1005F00003E01078FFF7EEFF521C181EA3F1010173
:10060000CBB2F6D100BD2DE9F05F05460E463001B4
:1006100000F066FE81462A4905FB01F000F060FE0D
:100620008246494600F07AFD0746384600F038FE1B
:1006300084B2204600F054FE8346394600F030FF75
:1006400082464FF0834100F05FFE814600F028FEB5
:1006500080464FF6FF7000EA041404EB080084B2F1
:100660001848806940F0040016498861084680698E
:1006700040F4804088611448006820F47F6012498B
:1006800008600846006840F40B6008600D48C068C8
:1006900040F480400B49C8600846C06820F48040A0
:1006A000C860064808300480001D008842F20C0132
:1006B000084302490C310880BDE8F09F0038014032
:1006C00040420F0000100240040801400B488069BE
:1006D00040F01000094988610948406820F4700022
:1006E000074948600846406840F4401048600846A2
:1006F000C06840F40050C86070470000001002401D
:100700000010014010B52C48806940F400602A496F
:10071000886141F61F40294908803120091D088061
:1007200000202649091F088024482838008840F006
:10073000800022492839088020481C38008840F071
:1007400001001E491C3908800846008840F040001E
:1007500008801A482838008840F0010017492839D5
:1007600008800023192203210120FFF7DDFD10BDC1
:10077000124818380088E8B100201049183908805C
:1007800001200F4908700F480078401C0D4908707F
:1007900008460078642190FBF1F201FB120010B9C9
:1007A00001200949087007480078C82802D10020B4
:1007B000044908707047000000100240282C0140D6
:1007C00009000020080000200A000020F748806986
:1007D00040F00800F5498861F548006820F0FF0006
:1007E000F34908600846006840F03300086070472D
:1007F00010B5EF48006820F0F000ED4908600846A9
:10080000006840F0300008600120EA490860EA48CA
:10081000D0F8240108B9002010BD0120E549091FC6
:100820000860FFF72DFD0020E349C1F8A401E1486D
:100830008038006808B10020EEE70120FFF720FDB6
:100840000020DC49091F08600120E5E710B5D84801
:10085000006820F0F000D64908600846006840F0C3
:10086000300008600020D349091F0860D249C1F850
:10087000A4010120FFF704FD0120CE49091F0860F3
:10088000CD49C1F8A401FFF7FBFC10BD10B5002451
:10089000C748006820F0F000C549086008460068B5
:1008A00040F0800008600120C2490860FFF7E8FCC2
:1008B0000120C149C1F8A001FFF7E2FC0AE0601C79
:1008C000C4B2322C03DDFFF7C1FF002010BD0120B0
:1008D000FFF7D6FCB748803800680028EFD1B5494B
:1008E000091F08600120F1E710B50020B149091F78
:1008F0000860AF48006820F0F000AD490860084685
:10090000006840F0300008600020AB49C1F8A40145
:100910000120FFF7B5FC0120A649091F0860FFF779
:10092000AFFC0020A449C1F8A00110BD10B5002003
:10093000A049091F08609E48006820F0F0009C490B
:1009400008600846006840F03000086001209A49BD
:10095000C1F8A401FFF794FC01209649091F086023
:10096000FFF78EFC00209449C1F8A00110BD70B5BE
:1009700004468F48006820F0F0008D490860084662
:10098000006840F03000086000208A49091F0860B4
:10099000002516E0E009874908606006040E012082
:1009A000FFF76EFC01208449C1F8A001FFF768FC45
:1009B00000208049091F08600120FFF761FC681CC6
:1009C000C5B2082DE6DB70BD2DE9F04105460E46A7
:1009D00017469846FFF70CFF10B90120BDE8F081DB
:1009E0006906080EFFF7C3FFFFF750FF18B9FFF7BE
:1009F0002DFF0120F2E73046FFF7B9FFFFF746FF72
:100A000000240BE018F80400FFF7B1FFFFF73EFFEA
:100A100018B9FFF71BFF0020E0E7641CBC42F1DBC4
:100A2000FFF714FF0020D9E770B5054600246048A1
:100A3000006820F0F0005E4908600846006840F059
:100A400080000860002617E000205A49091F08604E
:100A50000220FFF715FC01205749C1F8A0016006EC
:100A6000040E54488038006808B1601CC4B20220EB
:100A7000FFF706FC701CC6B2082EE5DB15B1FFF7C8
:100A800033FF01E0FFF752FF204670BD2DE9F04132
:100A900006460F4614461D46FFF7AAFE10B9012070
:100AA000BDE8F0817106080EFFF761FFFFF7EEFE6B
:100AB00018B9FFF7CBFE0120F2E73846FFF757FFE2
:100AC000FFF7E4FEFFF794FE012101EB4601C8B2F7
:100AD000FFF74DFFFFF7DAFE0DE0012C04D10020F7
:100AE000FFF7A2FF287003E00120FFF79DFF2870A9
:100AF0006D1C601EC4B2002CEFD1FFF7A7FE0020D2
:100B0000CEE770B505460E460024FFF771FE284675
:100B1000FFF72DFF641CFFF7B9FE3046FFF727FFF4
:100B2000641CFFF7B3FEFFF763FE691CC8B2FFF752
:100B30001EFF641CFFF7AAFE0020FFF775FF0446A6
:100B4000FFF784FE204670BD2DE9F0410746884638
:100B500015461E460024FFF74BFE3846FFF707FFF9
:100B6000FFF794FE4046FFF702FFFFF78FFEFFF707
:100B70003FFE791CC8B2FFF7FAFEFFF787FE00BF01
:100B80000DE0681EA04204D00120FFF74DFF305554
:100B900003E00020FFF748FF3055601CC4B2AC42B0
:100BA000EFDBFFF753FE2046BDE8F0810010024066
:100BB000040C0140A4812142008021422DE9F04132
:100BC00080460D4616461F460024FFF711FE40469C
:100BD000FFF7CDFEFFF75AFE2846FFF7C8FEFFF7E6
:100BE00055FE00BF06E0385DFFF7C1FEFFF74EFE81
:100BF000601CC4B2B442F6DBFFF728FE0120BDE85A
:100C0000F08170B505460E46144631462846FFF77A
:100C100078FF2070012070BD37B504460D4602AB49
:100C2000012229462046FFF7C9FF3EBD2DE9F843C2
:100C30000746884614461D46089E6A464146384681
:100C4000FFF7DFFF28B3601CFF2101FA00F0C4F1B9
:100C500008012944491EFF220A41104300F0FF0900
:100C6000C5F1080006FA00F0C6B2C4F1070006415B
:100C70009DF8000000EA090000909DF80000304354
:100C800000909DF8002041463846FFF7C5FFBDE8BB
:100C9000F8830020FBE7F8B506460F4614461D46CC
:100CA0006A4639463046FFF7ACFF2DB10120A0401F
:100CB0009DF80010084305E00120A0409DF80010B9
:100CC00021EA0000C0B200909DF80020394630466D
:100CD000FFF7A2FFF8BD000008B5802000906B462A
:100CE00001226B216820FFF76FFE4FF4FA70FFF7C7
:100CF000E3FA002000906B4601226B216820FFF789
:100D000063FE002000906B4601226C216820FFF7F3
:100D10005BFE062000906B4601221A216820FFF737
:100D200053FE102000906B4601221B216820FFF724
:100D30004BFE182000906B4601221C216820FFF713
:100D400043FE022000906B46012237216820FFF706
:100D50003BFE002000906B4601226A216820FFF7CD
:100D600033FE08BD70B505460C46234601222946D0
:100D70006820FFF78BFE2678300206B2681CC1B2ED
:100D8000234601226820FFF781FE20780643304683
:100D900070BD08B569463B20FFF7E4FF0A490880AB
:100DA00069463F20FFF7DEFF084908806946452075
:100DB000FFF7D8FF064908800846B0F9001005A0E3
:100DC00000F010F808BD00000C0000200E0000200C
:100DD0001000002067793D256420200A00000000F3
:100DE000704700000FB4044910B503AA029800F040
:100DF000D3F810BC5DF814FB040000202DE9F0418D
:100E00000E460446002020622046E168884730B341
:100E1000252805D0D4E901219047206A401CF2E73B
:100E2000E168204600278847050018D0A5F1410059
:100E3000192802D820354FF400673246294620464B
:100E40002760FFF78DF940B1012804D0F61D26F088
:100E500007060836D8E7361DD6E72846DAE7206ABF
:100E6000BDE8F0812DE9F04106460024106875299F
:100E7000314616A510D0AFF30080002802DA4042B8
:100E800013A507E031688A0701D512A502E04907DA
:100E900004D511A5012401E0AFF3008000210A224E
:100EA00006F1240709E0B0FBF2FCB0FBF2F302FB11
:100EB0001C00303078541846491C0028F3D12346D2
:100EC0002A463046BDE8F04100F00CB800000000B2
:100ED0002D0000002B00000020000000704770472C
:100EE000704770472DE9F0470D46994692460446F3
:100EF00000F124080168880604D5E06921F010019A
:100F0000216000E00120A84201DD471B00E000272E
:100F1000A1697A1902EB0900081AA0612078C006BD
:100F200002D42046AFF30080002608E0D4E9012176
:100F30001AF806009047206A401C761C20624E4535
:100F4000F4DB2078C0060AD52046AFF3008006E027
:100F5000D4E9012130209047206A401C2062381ECD
:100F6000A7F10107F4DC07E0D4E9012118F8050036
:100F70009047206A401C2062281EA5F10105F3DC81
:100F80002046AFF300802078000602D50220BDE89D
:100F9000F0870120FBE70000074B70B50D467B444E
:100FA00000F011F80446284600F020F810B14FF088
:100FB000FF3070BD204670BD1BF6FFFF01694A1C63
:100FC00002610878704700B58FB0CDE9013100218A
:100FD000059105497944CDE9031011466846FFF7AC
:100FE0000DFF0FB000BD0000E5FFFFFF007B00F02C
:100FF00080007047754600F02BF8AE460500694644
:10100000534620F00700854618B020B5FFF7D2F808
:10101000BDE820404FF000064FF000074FF00008F9
:101020004FF0000B21F00701AC46ACE8C009ACE87A
:10103000C009ACE8C009ACE8C0098D46704710B5DE
:101040000446AFF300802046BDE81040FFF79AB891
:10105000004870471400002090EA010F48BF81F05B
:10106000004100F12E82421A3CBF801A89184FEAD3
:10107000D0524FF07F4C1CEA410FA2EBD15318BF66
:101080009CEA026F00F03B804FF0004C4CEA0020DD
:101090004CEA012121FA03FC10EB0C0C1ED202F1E8
:1010A000FF325FEA1C2040EBC25038BF70471CF093
:1010B0007F0F4FEA400C18BFBCF17F4F38BF70471D
:1010C000C3F12003994008BF20F00100BCF17F4F1D
:1010D00038BF7047A0F1C04000F0DDB94FEA3C00D6
:1010E000000A40EBC25028BF1CF0FF0F4FEA400C33
:1010F000E6D018BFBCF17F4F38BF7047EAE79CEAE3
:10110000026F05D010EA5C0F08BF00F00040704786
:1011100010B500F07AF900BF64FBBE3E4FF47F0CBF
:101120001CEAD0121EBF1CEAD11392EA0C0F93EAFC
:101130000C0F00F0858090EA010F48BF42F48072E6
:1011400040F4000C41F400002CF07F4120F07F407F
:1011500000B58142A2EB03020FF2081CACEB504E2B
:10116000C0F100009EF800E04FEA4E0E00FB0EFCBE
:1011700038BF49004FEA2C1C02F5FA020CFB0EF3B3
:101180004FEACE1E4FEA112C4FEAC1210EEB635EEF
:1011900042EB22420EFB0CFC4FEA1C5300FB0311F6
:1011A0004FEA112C4FEA01310EFB0CFC4FEADC4CEC
:1011B00000FB0C11C14228BF09184CEB03335DF84A
:1011C00004EB10EB410143EBC250B2F57C0F38BF8A
:1011D000704729D512F0F00F1CBF00F1C04000F09D
:1011E00000407047008182838485868788898B8C44
:1011F0008D8E8F919293959697999A9C9D9FA0A280
:10120000A3A5A7A8AAACAEB0B2B3B5B7B9BCBEC0CF
:10121000C2C5C7C9CCCED1D4D7D9DCDFE2E6E9EC70
:10122000F0F3F7FAFE0000004FEA400C0CF1807C6E
:10123000BCF17E4F28BF7047B0F1C04000F02BB921
:1012400090EA010F0CEAD11348BF42F48072624564
:1012500038BF634507D213F47F0F16D080EA010030
:1012600000F00040704710B500F0CFF8097EFC3E5A
:1012700000F005B880EA010000F00040704780EA05
:10128000010000F0004000F006B912F47F0F04BF27
:101290000248704780EA010000F0FDB80000C07FFE
:1012A000C10DD1F19E0206DB4FEA002343F000435B
:1012B00023FA02F07047004207D54FEA4001B1F12E
:1012C000FE4F02D24FF00000704710B500F09DF8BD
:1012D00049922480002070476FEA20007047000088
:1012E000B0FA80F310FA03F2C3F19D030AD0D905D6
:1012F00001EB1220530638BF704700F1010008BF10
:1013000020F00100704700004FF47F0C1CEAD0125F
:101310001EBF1CEAD11392EA0C0F93EA0C0F00F0E7
:10132000478090EA010F48BF42F480724FF0004CB2
:101330004CEA00204CEA012102EB0302A0FB01135E
:10134000A2F50002002918BF43F001035B0028BF8B
:101350004FEA330342EB22425FEA132C4CEBC250BC
:101360002EBFBCEB436FB2F57C0F70474FEA036CA6
:10137000BCF1004F08BF20F00100B2F57C0F38BF70
:1013800070470BD582F0FF0212F5803FC8BF70474F
:1013900000F1C040D8BF00F00040704700F5000CDD
:1013A0005FEA4C0C48BF7047B0F1C04000F073B822
:1013B00090EA010F0CEAD11348BF42F480726245F3
:1013C00038BF634504D280EA010000F00040704756
:1013D00010B500F01AF800BF8900013E00F007B810
:1013E00000F009B85FEA410C5FEA1C6C08D080EAA3
:1013F000010000F050B85FEA400C5FEA1C6CF6D1C7
:101400004FF00040A0F5800070470EF1020E2EF064
:10141000030E5EF8044B244204D44FEA4102B2F1B9
:101420007F4F11D84FEA4003B3F17F4F0CD80ED154
:101430004FEAD07CB2F17F4F0CEB4C0C0CF1020C5C
:1014400008BF4CEBD17C04E04FF0080C01E04FEA00
:10145000D17C0CEB4C0324FA03F404F00704B4F140
:10146000040C06D20EEB840CBDE810404CF0010CCD
:101470006047DFE80CF0070802024FF00040A0F5DB
:10148000800010BD0846420018BFD2F1807288BFAC
:1014900000F0004010BDFF2141EAD050C005704768
:1014A00080F0004090EA010F7FF5DDAD81F0004152
:1014B00000F007B890EA010F48BF81F000413FF506
:1014C000D2AD421A04D882F00042A0EB02001144CF
:1014D0004FEAD0524FF07F4C1CEA410FA2EBD153A0
:1014E00018BF9CEA026F4AD04FF0004C4CEA002033
:1014F0004CEA012121FA03FCB0EB0C0C0FD412F0E2
:10150000FE0F36D05FEA4C001DD5001240EBC250F2
:1015100038BF70471CF03F0F18BF70470BE0A2F1B7
:1015200001025FEA1C2040EBC25038BF70471CF03C
:101530007F0F18BF7047C3F12003994014BF401EAE
:1015400020F00100704780084FEA122308BF70475F
:10155000B0FA80FCA2EB0C02CCF1280C60FA0CF083
:1015600093EA122F04BF00EBC25070474FEAC370DA
:101570007047130A5FEADC1008BF7047F6E79CEA81
:10158000026F04D010EA5C0F08BF0020704710B54E
:10159000FFF73BFF40DFF63E81F000407047000060
:1015A000C0150008000000201400000028010008F9
:1015B000D41500081400002064060000440100084F
:1015C000000000000000000000000000000000001B
:0415D0000000000017
:04000005080000ED02
:00000001FF
