:020000040800F2
:10000000A0080020DD010008E1010008E30100086C
:10001000E5010008E7010008E90100080000000010
:10002000000000000000000000000000EB010008DC
:10003000ED01000800000000EF010008F1010008D8
:10004000F3010008F3010008F3010008F3010008C0
:10005000F3010008F3010008F3010008F3010008B0
:10006000F3010008F3010008F3010008F3010008A0
:10007000F3010008F3010008F3010008F301000890
:10008000F3010008F3010008F3010008F301000880
:10009000F3010008F3010008F3010008ED17000860
:1000A000F3010008F3010008F3010008F301000860
:1000B000750E0008270A00085D0E0008F30100080D
:1000C000F3010008F3010008F3010008F301000840
:1000D000F3010008F3010008F3010008911400087F
:1000E000F3010008F3010008F301000800F002F832
:1000F00000F05FF80AA090E8000C82448344AAF163
:100100000107DA4501D100F054F8AFF2090EBAE860
:100110000F0013F0010F18BFFB1A43F0010318473B
:1001200058810000788100000A444FF0000C10F85C
:10013000013B13F0070408BF10F8014B1D1108BF65
:1001400010F8015B641E05D010F8016B641E01F805
:10015000016BF9D113F0080F1EBF10F8014BAD1C55
:100160000C1B09D16D1E58BF01F801CBFAD505E073
:1001700014F8016B01F8016B6D1EF9D59142D6D3CD
:10018000704700000023002400250026103A28BFF5
:1001900078C1FBD8520728BF30C148BF0B607047F9
:1001A000642905F07F82002070471FB51FBD10B580
:1001B00010BD05F047FC1146FFF7F7FF00F02AF8E5
:1001C00005F065FC03B4FFF7F2FF03BC00F024FA6E
:1001D00030BF72B662B680F308887047084800479F
:1001E000FEE7FEE7FEE7FEE7FEE7FEE7FEE7FEE7E7
:1001F000FEE7FEE703480449044A054B7047000048
:10020000ED000008A0020020A0080020A0040020AB
:10021000A00400200024092000F0A5F9482000F0E7
:1002200045F84FF4FA6000F079F800F081FA4FF4E5
:100230001651242001F0BAF8002141F61F4000F0C9
:1002400071FC00F019FD00F074FD00F029FE322071
:1002500000F064F802F067F921E0052000F05EF894
:10026000601C80B20446642817D100240C48006842
:1002700008B9012000E00020094908600948006829
:1002800006F0A4FE40B20849088000BF0648001FDF
:10029000008800F040000028F8D001F0A7FADCE761
:1002A000B401224220000020044800404FF0E02129
:1002B000096921F004014FF0E0221161C21700EB3F
:1002C0005272C2F3C702234B1A701946097801EB28
:1002D0004102C2EBC1114FF6FF7202EAC1011E4A90
:1002E0001180704701461B4A12784A434FF0E023C1
:1002F0005A6100229A6101221A6100BF4FF0E02288
:10030000106900F001021AB100F48032002AF5D021
:1003100000224FF0E0231A619A61704701460E4AAD
:1003200012884A434FF0E0235A6100229A61012269
:100330001A6100BF4FF0E022106900F001021AB10B
:1003400000F48032002AF5D000224FF0E0231A6139
:100350009A6170473C0000203E000020A34A0A40FA
:100360000243A34B1A6070470146072323EA0102A8
:1003700012029F4B1B1D18684FF6FF0318409D4B40
:10038000184310439A4B1B1D186070472DE9F0412C
:100390000746884614461D462846FFF7E5FFC5F187
:1003A000040007FA00F60F20284100EA080006437F
:1003B00006F00F06E21704EBD2625211920002F12E
:1003C000E022D2F800212146E31704EBD3635B114E
:1003D000A4EB431C012303FA0CF31A432046E31752
:1003E00004EBD3635B119B0003F1E023C3F800210E
:1003F0008148005D40EA06107F490855BDE8F0815C
:1004000070B504460B46CE1701EB9676C6F387000F
:10041000CE1701EB9676B610A1EB8606B606350E22
:10042000764B9B6943F00103744EB3614FEAB633D8
:1004300053F820300F26AE40B343714E46F82030BB
:10044000334653F8203004FA05F61E436C4B43F84C
:1004500020606C4B1B6801268E403343694E33602D
:1004600002F0010343B1674B0C331B6801268E4039
:100470003343644E0C36336002F0020343B1614BE8
:1004800008331E6801238B401E435E4B08331E60F9
:1004900070BD00B5002059490861C860142048614A
:1004A00000208861C8610846006840F001000860CB
:1004B000084640685449084050494860084600686A
:1004C000524908404D4908600846006820F48020E1
:1004D00008600846406820F4FE00486000208860FC
:1004E00000214FF00060FFF739FF00BD10B5404814
:1004F0000830006840F004003D49083108603F487A
:10050000C06940F080503D49C8614148406840F4AE
:1005100080703F4948600846006840F00400086069
:100520000846006840F002000860FFF751FE10BD69
:100530003048001D2E49091D0860704701464906D4
:100540002E4A926942F001022C4B9A612C4A083AD9
:10055000526822F0E0622A4B083B5A601A46526801
:100560000A435A60704730B504460025FFF791FFF3
:100570002248006840F480302049086000BF1F48CE
:100580000068400C0028FAD04FF480601B49486096
:10059000A01EC4B20846406840EA8440486008464D
:1005A000406840F4803048601A48006840F03200EB
:1005B000184908601148006840F080700F490860D1
:1005C00000BF0E480068400E0028FAD00B48406873
:1005D00040F002000949486005E008484068C0F35F
:1005E000870505F00305022DF7D130BD80FFFF1F01
:1005F00008ED00E00000FA0500E400E00010024011
:1006000008000140000401400000FFF8FFFFF6FE73
:100610000070004000200240014600BF00207047EB
:1006200000BF3F4A128802F04002002AF9D0C2B24D
:100630003B4B1B1D1A8070473949091D088000BFBC
:100640003749098801F040010029F9D0704700B509
:1006500002460B4603E01078FFF7EEFF521C181E0F
:10066000A3F10101CBB2F6D100BD2DE9F05F054643
:100670000E46300106F0FEFC81462A4905FB01F0DA
:1006800006F0F8FC8246494606F0AAFB07463846C3
:1006900006F0B8FC84B2204606F0ECFC83463946EE
:1006A00006F02DFE82464FF0834106F02BFD814679
:1006B00006F0A8FC80464FF6FF7000EA041404EB35
:1006C000080084B21848806940F004001649886127
:1006D0000846806940F4804088611448006820F42E
:1006E0007F60124908600846006840F40B600860AB
:1006F0000D48C06840F480400B49C8600846C06897
:1007000020F48040C860064808300480001D00883E
:1007100042F20C01084302490C310880BDE8F09F09
:100720000038014040420F00001002400408014020
:100730001648806940F010001449886114484068E8
:1007400020F47000124948600846406840F44010A8
:1007500048600846C06840F40050C860704718B947
:1007600000210C4A11600FE00B490968491C0A4A34
:100770001160814208D107490968C943074AC2F894
:10078000B4110021044A11607047000000100240BB
:1007900000100140B4012242440000200000224227
:1007A0005648806940F00800544988615448006800
:1007B00020F47040524908600846006840F4004048
:1007C00008604F480C30006840F400404C490C3140
:1007D0000860704701464B48006828B94A480088BD
:1007E000401C494A108002E00020474A10804548DA
:1007F000006828B94548007810B90120434A1070B4
:1008000043480078B0B941480078012807D14148F1
:100810000078401C3F4A107001203D4A10703D484E
:100820000078022806D100203A4A10703A4A108017
:100830000220704733480068012804D10020334A61
:100840001070334A10703348007801281CD13248A8
:100850000088401C304A10801046008888420ADD1B
:1008600029480088884206DA00202A4A10702A4A5D
:1008700010800120DDE724480088884204DD002044
:10088000244A1070244A10800020D2E723480078C0
:1008900038B11C48006820B90020204908700120A8
:1008A000704718480068012801D11C4908700020D1
:1008B000F6E71B48008840B91248006828B9194873
:1008C0000088401C1749088002E000201549088074
:1008D00014480088C82807DD01201149088000203D
:1008E00010490880012070470D480088012802D176
:1008F00000200B4908800020F5E7000000100240AE
:10090000000C01403C0121424E0000204800002024
:10091000490000204A0000204C0000205000002028
:10092000540000205200002070B504460D466C486B
:10093000C06940F002006A49C8610846806940F019
:10094000080088616748006820F0FF00654908607A
:100950000846006840F02800086063480480001FD3
:10096000058061481038008840F001005E49103968
:100970000880084600880880084600880880081D0E
:100980000088091D08800846008840F480700880AF
:1009900055482038008840F0080053492039088025
:1009A0000846008840F0010008804F482C38008835
:1009B00040F001004C492C39088001231D220321FD
:1009C0001846FFF7E3FC70BD10B5012047490860E9
:1009D0000F20FFF787FC00204549C1F884014548F6
:1009E000007800F08000E8B14248007800F03F0055
:1009F000414908600846008800040860084600680D
:100A00003E49098808443C49086008460068AA2114
:100A100048434FF47A71B0FBF1F037490860002089
:100A20003449088010BD30491C390888314909789B
:100A300001F0800100294ED100F00101D1B12D4912
:100A4000097801F04001A9B12A49097801F03F0174
:100A50003F290AD12749098841F08001254A1180A0
:100A60004FF6FF71254A118004E022490988491C8C
:100A7000204A118000F0080169B31E49097801F08D
:100A8000400199B11B49098841F08001194A118040
:100A9000154910310988194A118013490C39098800
:100AA00021F40071104A0C3A118014E00021114A1F
:100AB0001180124A11800F49098841F040010D4A06
:100AC00011800021084A083A1180111F098841F459
:100AD0000071121F11800021034A1C3A11807047D7
:100AE00000100240000C01402C040040848121428F
:100AF00000802142560000203000002058000020D5
:100B00005848806940F00800564988615648006896
:100B100080B2554908600846006854490843524964
:100B2000086070474F4A926942F004024D4B9A6147
:100B30004F4A12686FF30F024D4B1A601A46126843
:100B40004BF6BB331A434A4B1A60494A08321268C3
:100B500042F48072464B08331A601A46126842F417
:100B600000721A601A46126842F480621A601A46CD
:100B7000126842F400621A603A4A926942F40062D2
:100B8000384B9A613B4A1080121F1180394A183A3B
:100B9000128842F00102374B183B1A801A1D128846
:100BA00042F060021B1D1A801A46128842F00802A9
:100BB0001A801A46128842F4C0421A801A461288D5
:100BC00042F400621A801A1D128842F060021B1D56
:100BD0001A801A46128842F008021A801A461288B1
:100BE00042F4C0421A801A46128842F400621A8007
:100BF0001A1D128842F001021B1D1A801A46128823
:100C000042F010021A801A46128842F480721A804A
:100C10001A46128842F480521A80164A18321288F4
:100C200042F40042134B18331A800022114B083350
:100C30001A8040F24C421B1D1A8000221B1D1A8094
:100C400040F24C421B1D1A800A4A2C3A128842F08C
:100C50008002084B2C3B1A801A46128842F001028F
:100C60001A80704700100240040C0140000022224C
:100C7000040801402C2C014010B58448C06940F0A4
:100C800001008249C8610846806940F0040088611B
:100C90007F48006820F0FF007D4908600846006832
:100CA00040F044000860C804808940F00100C90495
:100CB00088810846808940F04000888101231C22F9
:100CC00003211846FFF762FB00204FF080410885A2
:100CD0004FF6FF7088850846008820F44070088031
:100CE0000846008820F0600008800846008B40F02D
:100CF000010008830846008B40F480700883084692
:100D0000008C20F0020008840846008C20F02000AF
:100D100008840846008B40F03000088308460089AC
:100D200040F0030008810846008840F00100088078
:100D300010BD10B55548C06940F004005349C86162
:100D40000846806940F0080088615248006820F039
:100D50007F40504908600846006840F088400860BD
:100D60004D48008840F001004B4908800846008843
:100D700040F04000088001231E2203211846FFF79F
:100D800005FB002044491C3108804FF6FF70091D07
:100D9000088041480C38008820F440703E490C39E6
:100DA00008800846008820F0600008803A480C302F
:100DB000008840F0010038490C310880084600885E
:100DC00040F48070088034481430008820F002001D
:100DD0003149143108800846008820F0200008803E
:100DE0002D480C30008840F030002B490C31088031
:100DF0002948001F008840F003002749091F088088
:100E000025480C38008840F0010023490C3908803F
:100E100010BD0146022904D003290BD0042919D1A1
:100E20000FE04FF08042928C10B200224FF08043CE
:100E30009A8411E0194A128810B20022174B1A80C6
:100E40000AE0154A1832128810B20022124B1833E9
:100E50001A8001E0002000BF00BF70470E48001D4F
:100E600000880D48001D008820F001000A49091D76
:100E7000088070474FF08040008A4FF08040008A21
:100E800020F001004FF080410882704700100240BE
:100E900000080140000C01400C0800402404004000
:100EA000F748806940F00800F5498861F548006816
:100EB00020F0FF00F34908600846006840F0330066
:100EC0000860704710B5EF48006820F0F000ED4969
:100ED00008600846006840F0300008600120EA49D8
:100EE0000860EA48D0F8240108B9002010BD0120AC
:100EF000E549091F0860FFF7F5F90020E349C1F84B
:100F0000A401E1488038006808B10020EEE7012024
:100F1000FFF7E8F90020DC49091F08600120E5E738
:100F200010B5D848006820F0F000D649086008469F
:100F3000006840F0300008600020D349091F0860B5
:100F4000D249C1F8A4010120FFF7CCF90120CE4914
:100F5000091F0860CD49C1F8A401FFF7C3F910BD0E
:100F600010B50024C748006820F0F000C5490860AB
:100F70000846006840F0800008600120C24908600F
:100F8000FFF7B0F90120C149C1F8A001FFF7AAF9A4
:100F90000AE0601CC4B2322C03DDFFF7C1FF002061
:100FA00010BD0120FFF79EF9B7488038006800287F
:100FB000EFD1B549091F08600120F1E710B5002005
:100FC000B149091F0860AF48006820F0F000AD4942
:100FD00008600846006840F0300008600020AB4917
:100FE000C1F8A4010120FFF77DF90120A649091FDE
:100FF0000860FFF777F90020A449C1F8A00110BDEF
:1010000010B50020A049091F08609E48006820F024
:10101000F0009C4908600846006840F03000086015
:1010200001209A49C1F8A401FFF75CF90120964913
:10103000091F0860FFF756F900209449C1F8A00184
:1010400010BD70B504468F48006820F0F0008D494F
:1010500008600846006840F03000086000208A49B7
:10106000091F0860002516E0E0098749086060064E
:10107000040E0120FFF736F901208449C1F8A001D0
:10108000FFF730F900208049091F08600120FFF7B1
:1010900029F9681CC5B2082DE6DB70BD2DE9F041C9
:1010A00005460E4617469846FFF70CFF10B901207B
:1010B000BDE8F0816906080EFFF7C3FFFFF750FF98
:1010C00018B9FFF72DFF0120F2E73046FFF7B9FF0F
:1010D000FFF746FF00240BE018F80400FFF7B1FF0C
:1010E000FFF73EFF18B9FFF71BFF0020E0E7641C85
:1010F000BC42F1DBFFF714FF0020D9E770B50546CD
:1011000000246048006820F0F0005E49086008464E
:10111000006840F080000860002617E000205A496F
:10112000091F08600220FFF7DDF801205749C1F8C8
:10113000A0016006040E54488038006808B1601CA5
:10114000C4B20220FFF7CEF8701CC6B2082EE5DB51
:1011500015B1FFF733FF01E0FFF752FF204670BDE6
:101160002DE9F04106460F4614461D46FFF7AAFE3C
:1011700010B90120BDE8F0817106080EFFF761FF8C
:10118000FFF7EEFE18B9FFF7CBFE0120F2E7384675
:10119000FFF757FFFFF7E4FEFFF794FE012101EB95
:1011A0004601C8B2FFF74DFFFFF7DAFE0DE0012C54
:1011B00004D10020FFF7A2FF287003E00120FFF711
:1011C0009DFF28706D1C601EC4B2002CEFD1FFF78C
:1011D000A7FE0020CEE770B505460E460024FFF7B7
:1011E00071FE2846FFF72DFF641CFFF7B9FE30465D
:1011F000FFF727FF641CFFF7B3FEFFF763FE691CD0
:10120000C8B2FFF71EFF641CFFF7AAFE0020FFF71D
:1012100075FF0446FFF784FE204670BD2DE9F041BE
:101220000746884615461E460024FFF74BFE384603
:10123000FFF707FFFFF794FE4046FFF702FFFFF7B7
:101240008FFEFFF73FFE791CC8B2FFF7FAFEFFF7EB
:1012500087FE00BF0DE0681EA04204D00120FFF70A
:101260004DFF305503E00020FFF748FF3055601C6C
:10127000C4B2AC42EFDBFFF753FE2046BDE8F0817D
:1012800000100240040C0140A48121420080214250
:101290002DE9F04180460D4616461F460024FFF713
:1012A00011FE4046FFF7CDFEFFF75AFE2846FFF736
:1012B000C8FEFFF755FE00BF06E0385DFFF7C1FE30
:1012C000FFF74EFE601CC4B2B442F6DBFFF728FE07
:1012D0000120BDE8F08170B505460E461446314642
:1012E0002846FFF778FF2070012070BD37B504460F
:1012F0000D4602AB012229462046FFF7C9FF3EBD3D
:101300002DE9F8430746884614461D46089E6A465E
:1013100041463846FFF7DFFF28B3601CFF2101FA82
:1013200000F0C4F108012944491EFF220A4110437C
:1013300000F0FF09C5F1080006FA00F0C6B2C4F1DA
:10134000070006419DF8000000EA090000909DF8A2
:101350000000304300909DF8002041463846FFF7DA
:10136000C5FFBDE8F8830020FBE7F8B506460F4649
:1013700014461D466A4639463046FFF7ACFF2DB18C
:101380000120A0409DF80010084305E00120A04086
:101390009DF8001021EA0000C0B200909DF80020E6
:1013A00039463046FFF7A2FFF8BD00002DE9F05F97
:1013B00005460E46300105F05DFE8146354905FBC8
:1013C00001F005F057FE8246494605F009FD074643
:1013D000384605F017FE84B2204605F04BFE8346E2
:1013E000394605F08CFF82464FF0834105F08AFEB6
:1013F000814605F007FE80464FF6FF7000EA0414B0
:1014000004EB080084B22448806940F008002249B7
:1014100088610846C06940F48020C8611F480068A0
:1014200020F47F401D4908600846006840F40B40E6
:1014300008601A480830006840F480601749083195
:1014400008601548006940F4802013490861084687
:10145000006920F48020086111480480001D008884
:1014600042F20C0108430E49091D08800846008815
:1014700040F4807008800846008840F02000088012
:101480000223272201211846FEF780FFBDE8F09FC6
:101490007047000040420F0000100240040C014061
:1014A000084800407CB505460C46FDA00068019048
:1014B000FCA000680090022101A8FFF7C8F8E1B283
:1014C0002846FFF7C4F802216846FFF7C0F87CBD44
:1014D00041F6F420F4490978012904D1F349096857
:1014E0000A39F24A1160F2490978012904D1F14917
:1014F00009680A31EF4A1160EC4909684242914299
:1015000002DA4142E94A1160E8490968814201DD95
:10151000E6490860E74909684242914202DA4142DD
:10152000E44A1160E3490968814201DDE14908604C
:1015300070472DE9F84F05460E460027DE48016842
:10154000284605F0DCFEDD490860DD480168DB481F
:10155000006805F0DFFE8246DA480168504605F073
:10156000D1FD8046D5480168D748006805F0CAFD1E
:101570008146414605F0C6FB07463146384605F030
:10158000C9FED249086008460168D148006805F0E4
:10159000B9FBCF490860CF49CD48006805F07EFE11
:1015A00002D2CC48CA490860CB49C948006805F056
:1015B00075FD02D2C848C6490860C8480168C348DA
:1015C000006805F0A7FE8346C5480168584605F047
:1015D00099FD8146BE480168C248006805F092FD49
:1015E0008346BA480168C048006805F08BFD59463B
:1015F000009005F087FB8246494605F083FB804654
:1016000005F0E4FC0446AD480068AD490860B34805
:101610000068AE4908602046BDE8F88F2DE9F04F1C
:1016200089B0814601F08BF9B0490860B9F1010F2A
:101630001BD100F0F3FFAE480068AE490860AE4928
:10164000B1F9020005F0FEFCAC490860AA49B1F905
:10165000040005F0F7FCAA490860AA49B1F90400A2
:1016600005F0F0FCA8490860BDE04421D020FFF758
:10167000B2FD80464321D020FFF7ADFD08EB0027E7
:10168000384605F0DFFC04464821D020FFF7A3FDD3
:1016900080464721D020FFF79EFD08EB0027384603
:1016A00005F0D0FC06463E21D020FFF794FD804691
:1016B0003D21D020FFF78FFD08EB0027384605F0CD
:1016C000C1FC83464021D020FFF785FD80463F21A5
:1016D000D020FFF780FD08EB0027384605F0B2FC6C
:1016E00005464FF08E41204605F0D8FD05D24FF05B
:1016F0008F41204605F00EFE04464FF08E413046E5
:1017000005F0CCFD05D24FF08F41304605F002FECA
:1017100006464FF08E41584605F0C0FD05D24FF009
:101720008F41584605F0F6FD83464FF08E4128461E
:1017300005F0B4FD05D24FF08F41284605F0EAFDD3
:101740000546284605F0B2FACDE90001584605F0F5
:10175000ADFA0746DDE9002304F066FC00226B4B7E
:10176000CDE9020104F0C8FF694A6A4BCDE90401E2
:1017700004F02EFECDE9060104F03CFD8246204631
:1017800005F094FA07464FF06632634B04F020FEF2
:101790004FF00042614BCDE9040104F0ADFFCDE90B
:1017A000060104F027FD04465D480078022804D1B4
:1017B0002146504600F06AFB09E0594800780328AA
:1017C00005D184F000473946504600F076FC554874
:1017D00000684849086084F000404849086048486B
:1017E00006604948056009B0BDE8F08F10B54E4865
:1017F000007808B9012000E000204B490870084635
:101800000078012805D146480078FFF707FF00203F
:1018100010BD43480078FFF701FF0420FFF7F9FAF5
:101820004042424908600220FFF7F3FA404908604D
:10183000324801682F480068FFF77BFE3D49086089
:10184000084600683C490968401A3C490968084450
:10185000164908603748006837490968401A37490F
:101860000968401A13490860FFF732FE0020CFE7ED
:1018700070B506460D463249304605F00FFC0CD3D4
:101880003049304605F00AFD07D32F48007801287B
:1018900003D040F25640854258DA012457E0000058
:1018A00003FC0000FC0300000100002010000020E9
:1018B0000200002014000020940000206C00002092
:1018C00070000020840000208000002074000020B0
:1018D0007C00002000401C4600401CC67800002010
:1018E000900000208C0000208800002018000020BC
:1018F00034010020200000202401002024000020CA
:10190000280000202A0100203800002000806640C6
:10191000F1D4C853FB210940666630403D0AD73FE9
:1019200000000020D40000206800002008000020F3
:101930000C0000205C0000206000002064000020FB
:10194000000020C2000020420600002000242046A3
:1019500070BD2DE9FC5F002001900090FD480078EB
:1019600001280CD1FC48007805F084FB0446214690
:10197000FA48006805F034FAF949086016E0F948B9
:10198000007801280FD1F448007805F073FB054674
:10199000F248006880F000442946204605F020FA0D
:1019A000EF49086002E00020ED490860EE4909684F
:1019B000EE4A12681144084605F044FBEC49086001
:1019C000EC48006805F072F90646EB4AEB4B04F070
:1019D00093FE044604F00EFCE6490860E448006803
:1019E00005F064F98046E44AE54B04F085FE0446C0
:1019F0000D46E048006805F059F9064622462B4698
:101A000004F02AFC824604F0F5FBDA490860084637
:101A10000168DC48006805F075F9DA490860DA49C0
:101A2000D848006805F03AFC02D2D748D54908608A
:101A3000D649D448006805F031FB02D2D348D149D9
:101A40000860D0480099006805F05CFB0446C9486E
:101A50000199006805F056FB0546214605F052F94C
:101A6000CB490860CB480168CB480068FFF700FF0E
:101A7000012803D0C9480078012802D10020C149BB
:101A80000860BDE8FC9F0146002901DA484200E0F9
:101A9000084670472DE9F84F05460E469146AE4878
:101AA0000078582191FBF0F7384605F0CBFA044650
:101AB000DFF8ECA24FF0000BBA480078012803D001
:101AC000B9480078012834D14FF07E51B7480068FA
:101AD00005F018F9B549074608604FF07E5105F04A
:101AE00041FA07D1A819FFF7CEFF074605F0AAFA79
:101AF000AF490860AE480168AE4805F071F9AE49DB
:101B000008600846006805F0D1F807464FF0333208
:101B1000AA4B04F0B5FD02D2A948A7490860A9491B
:101B2000A548006805F0BAFB0BD2A648A249086098
:101B300007E0A548A049086000209C4908609C492E
:101B4000086098480078012808D19B4801689F48A0
:101B5000006805F0DFFB9D4908600FE092480078BF
:101B6000012808D1944801689848006805F0CAF82F
:101B70009649086002E00020944908602146934895
:101B8000006805F08BFB01D29048046084F00047A8
:101B90008E480168384605F081FB03D284F000408E
:101BA0008A4908606B480078012803D06D480078A6
:101BB000012802D14FF07C5B01E04FF0000B594649
:101BC000484605F09FFA00908048006880F0004881
:101BD0005146404605F096FA0746009905F09AFBF3
:101BE0007B4908600846006805F0F0F9BDE8F88F09
:101BF000002807DD0022774B1A8000F24C421B1FA1
:101C00001A8007E040F24C42121A724B1A800022EE
:101C10001B1F1A80002908DD00226E4B08331A8032
:101C200001F24C421B1F1A8008E040F24C42521A4B
:101C3000684B08331A8000221B1F1A80704770B54A
:101C40003220FEF7C7FD0546012D07D15348007825
:101C500008B9012000E0002050490870022D07D18A
:101C60005D48007808B9012000E000205A4908705A
:101C7000FEF71FFE0446012C07D15848007808B92A
:101C8000012000E000205549087070BD2DE9F041A9
:101C900007460E4614461D4651480088E0B92046C6
:101CA000FFF7F1FE02462846FFF7EDFE10441E281E
:101CB00005DA4C480088401C4A49088002E00020B0
:101CC00048490880474800880A2805DD0120444922
:101CD00008800020434908804148008801281DD120
:101CE00041480088401C80B23F490880C82803DD75
:101CF000002008803A4908803C49384605F0CEFA71
:101D00000CD23B49304605F0C9FA07D23949304672
:101D100005F0C4F902D20220314908803048008819
:101D200002286BD134480088401C80B232490880B8
:101D3000642803DD00200880294908806019FFF726
:101D4000A2FE87285ADD0020254908800120BDE831
:101D5000F08153E00100002005000020AC000020CD
:101D6000A400002002000020080000200C00002039
:101D70009C000020A00000209A9999999999E93F28
:101D80009999C93FA800002000401C4600401CC68D
:101D9000940000201C0000202000002006000020ED
:101DA000000028420300002004000020C0000020A2
:101DB000B800002000004842BC0000203333E33F5D
:101DC0009A99193F000040406666663FB0000020C7
:101DD000B4000020382C014007000020360000200D
:101DE000C4000020C6000020C80000200020CB4610
:101DF0000000ACC100009441CA0000200020BDE8F2
:101E0000F08170B506460C4615461B48007808B9A7
:101E1000002070BD1948008870B91949304605F096
:101E20003DFA09D21749304605F038F904D21CB9F9
:101E300015B901201149088010480088012819D1DE
:101E400011480088401C80B20F490880322803DD09
:101E50000020088009490880032C0BDD032D09DDD3
:101E60003C2C07DA3C2D05DA002004490880088064
:101E70000120CEE70020CCE706000020CC000020A7
:101E8000000038C100000841CE0000202DE9F041DB
:101E900005460C46AA480168204605F03BFA07466D
:101EA000A8480168384605F02DF90646A64801689D
:101EB000304604F027FFA4490860A4484168A448BC
:101EC000006805F027FA0646A0488168304605F00C
:101ED00021FAA04908609D48C06880F00040486031
:101EE0009A48C06880F0004088609B480068C860DD
:101EF00008689449096805F005F9064693480168A1
:101F0000304604F0FFFE91490860924948688D49C7
:101F1000096805F0F7F806468C484168304604F039
:101F2000F1FE8A4948608B4988688649096805F04E
:101F3000E9F8064685488168304604F0E3FE8349A7
:101F400088608449C8687F49096805F0DBF806465F
:101F50007E48C168304604F0D5FE7C49C8607A48A6
:101F60000168284605F0D6F97C4908607C4800786D
:101F700005F080F8064675480168304605F0C2F85D
:101F8000784908607648007805F074F806466F488E
:101F90008168304605F0B6F87349086070480078EB
:101FA00005F068F807466F480168384605F0AAF85A
:101FB00006466E480168304604F0A4FE6C4908608D
:101FC000084601686748006804F00AFF694908602C
:101FD000674801686448006804F002FF66490860C9
:101FE00060480068654908605D48007805F042F87F
:101FF000064656484168304605F084F86049086056
:102000005E4801685B48006805F07CF806464F486A
:102010000168304605F073F94C490860584801687A
:102020005448006805F06EF8064648484168304656
:1020300005F065F945494860504801684E48006818
:1020400005F060F8064641488168304605F057F9CA
:102050003E4988604A4801684748006805F052F8E0
:1020600006463A48C168304605F049F93749C86024
:102070003A4801683F48006805F044F8064632488F
:102080000168304604F03EFE2F490860334801687D
:102090003948006805F036F8064629480168304698
:1020A00004F030FE2649086008460168204605F025
:1020B00031F934490860BDE8F0812DE9F04F8BB06B
:1020C00083468A46504604F0F1FD80462E4A2F4B47
:1020D00004F012FBCDE902011B48006804F0E6FDA4
:1020E000CDE90001DDE9022304F0B6F804460D460F
:1020F000274801684FF07E5005F00CF9804604F047
:10210000D5FD064622462B4604F0F6FACDE9060137
:102110001F480168584604F0F5FF044604F0C6FD68
:10212000CDE90401DDE9062304F096F8CDE90801C4
:1021300004F060F8044908600BB0BDE8F08F0000BF
:10214000F0000020E8000020D4000020140100204E
:10215000DC00002088010020E0000020F4000020C6
:10216000EC000020F8000020FC000020E40000202B
:102170000001002004010020080100200C010020C3
:1021800010010020D80000207B14AE47E17A743F94
:10219000D0000020014691F90020002A01DD002036
:1021A0001EE091F90020002A01DA042018E091F9DC
:1021B0000120002A01DD012012E091F90120002A0E
:1021C00001DA05200CE091F90220002A01DD02204D
:1021D00006E091F90220002A01DA062000E007203B
:1021E000704770B505462846FFF7D4FF0446E81C43
:1021F000FFF7D0FF44EAC00084B2A81DFFF7CAFF72
:1022000044EA801084B2204670BD70B588B002A93F
:1022100005A802F0B4F80446072C3FD101A801F04C
:1022200023FB059804F00EFF0646019904F06AFFAF
:10223000054604F0CBFE0590069804F003FF064621
:10224000019904F05FFF054604F0C0FE0690079870
:1022500004F0F8FE0646019904F054FF054604F028
:10226000B5FE079005A802F09AFB684601F019FB3D
:10227000BDF80010029848430290BDF80010039882
:1022800048430390BDF8001004984843049002A806
:1022900002F018FCFEA003F0C5F900BF08B070BD45
:1022A0002DE9F04304460D46DDE9076700210120D2
:1022B00041E0DFF800C43CF81080A0F1010CDFF829
:1022C000F49329F81C8009F1160C3CF81090A0F149
:1022D000010CDFF8E08308F1160828F81C9008F1DB
:1022E000160C3CF81090A0F1010C08F1160828F823
:1022F0001C9008F1160C3CF81090A0F1010C08F1AC
:10230000160828F81C9008F1160C3CF81090A0F163
:10231000010C08F1160828F81C9008F1160C3CF87E
:102320001090A0F1010C08F1160828F81C9000F19B
:10233000010C0CF0FF000A28BBDBDFF878C3ACF817
:102340001240ACF82850ACF83E20ACF85430ACF851
:102350006A60ACF880700021002008E0DFF854C308
:102360003CF910C0614400F1010C0CF0FF000A2898
:10237000F4DB4FF00A0C91FBFCFC0FFA8CFCDFF84D
:102380003483A8F814C0002100200AE0DFF824C339
:102390000CF1160C3CF910C0614400F1010C0CF07A
:1023A000FF000A28F2DB4FF00A0C91FBFCFC0FFA4D
:1023B0008CF8DFF800C3ACF82A80002100200AE086
:1023C000DFF8F0C20CF12C0C3CF910C0614400F1B4
:1023D000010C0CF0FF000A28F2DB4FF00A0C91FB15
:1023E000FCFC0FFA8CF8DFF8CCC2ACF8408000217E
:1023F00000200AE0DFF8BCC20CF1420C3CF910C02E
:10240000614400F1010C0CF0FF000A28F2DB4FF0F0
:102410000A0C91FBFCFC0FFA8CF8DFF898C2ACF8C0
:102420005680002100200AE0DFF888C20CF1580C29
:102430003CF910C0614400F1010C0CF0FF000A28C7
:10244000F2DB4FF00A0C91FBFCFC0FFA8CF8DFF882
:1024500064C2ACF86C80002100200AE0DFF854C2AE
:102460000CF16E0C3CF910C0614400F1010C0CF051
:10247000FF000A28F2DB4FF00A0C91FBFCFC0FFA7C
:102480008CF8DFF830C2ACF88280BDE8F08338B554
:102490000446032302226B21D0200094FEF730FF74
:1024A00038BD38B50446022304221B21D0200094F5
:1024B000FEF726FF38BD38B50446022304221C214E
:1024C000D0200094FEF71CFF38BD10B5044623460B
:1024D00006226B21D020FEF748FF10BD10B5764BC9
:1024E00001227521D020FEF799FE7348007810BDB7
:1024F00010B5FFF7F3FF682801D1012010BD0020BF
:10250000FCE710B50446234605226A21D020FEF7D9
:102510002CFF10BD10B50446234601223721D020E0
:10252000FEF723FF10BD10B50220FFF7B0FF032018
:10253000FFF7B7FF0020FFF7BEFF0020FFF7C5FF42
:102540000020FFF7DEFF0020FFF7E4FF10BD38B5E5
:10255000002000906B46012275216820FEF700FEE6
:1025600001205649087056A003F05CF89DF8000061
:1025700068280ED000BF5B48006800F4E0605A494C
:102580000843001D57490860BFF34F8F00BF00BFCD
:10259000FEE700F076FE00283CD1782000F0D9FA62
:1025A00010B947A003F03EF8782000F0B9FC10B94C
:1025B0004EA003F037F8C82000F093FD10B955A0E5
:1025C00003F030F802F050F910B95CA003F02AF8DB
:1025D0006748FFF706FE044602F050F910B965A0FF
:1025E00003F020F840F2731002F089FD10B96BA0DF
:1025F00003F018F8C82002F0FBFA10B971A003F03C
:1026000011F8FFF702FE012001F074FE10B976A068
:1026100003F008F800202949087038BD2DE9F04F73
:102620008DB00AA879490BAB06AACDE9001078490C
:10263000784802F0C3FE7548008800F480700028D6
:1026400024D0069804F0FEFC04464FF09D4104F0AF
:10265000C7FB71490860079804F0F4FC04464FF08A
:102660009D4104F0BDFB6D490860089804F0EAFC48
:1026700004464FF09D4104F0B3FB69490860099896
:1026800004F0E0FC04464FF09D41CBE054E1000033
:1026900073657474696E6720626961732073756312
:1026A00063657366756C6C79202E2E2E2E2E2E0D82
:1026B0000A000000A6010020980100200700002069
:1026C0006D70755F7365745F73656E736F72206391
:1026D0006F6D706C657465202E2E2E2E2E2E0D0AB9
:1026E000000000000CED00E00000FA056D70755F61
:1026F000636F6E6669677572655F6669666F206392
:102700006F6D706C657465202E2E2E2E2E2E0D0A88
:10271000000000006D70755F7365745F73616D70AC
:102720006C655F7261746520636F6D706C65746554
:10273000202E2E2E2E2E2E0D0A000000646D705FAE
:102740006C6F61645F6D6F74696F6E5F64726976E0
:1027500065725F6669726D7761726520636F6D7017
:102760006C657465202E2E2E2E2E2E0D0A00000074
:102770004C010020646D705F7365745F6F726965F2
:102780006E746174696F6E20636F6D706C657465D3
:10279000202E2E2E2E2E2E0D0A000000646D705F4E
:1027A000656E61626C655F666561747572652063F4
:1027B0006F6D706C657465202E2E2E2E2E2E0D0AD8
:1027C00000000000646D705F7365745F6669666F1A
:1027D0005F7261746520636F6D706C657465202E27
:1027E0002E2E2E2E2E0D0A006D70755F7365745F90
:1027F000646D705F737461746520636F6D706C6578
:102800007465202E2E2E2E2E2E0D0A003001002053
:102810002A010020240100203C010020400100206A
:102820004401002004F0DCFA604908606048016857
:102830004FF0804004F066FC04905E480168049804
:1028400004F060FC82465C4801684FF0404004F0B0
:1028500059FC049055480168049804F053FC8346E1
:10286000514604F04FFA059004F020FA804603F038
:1028700093F906464FF06632504B03F03DFF044695
:1028800003F0B8FC4E4908604A4801684FF08040A8
:1028900004F038FC019047480168019804F032FCCC
:1028A0008246454801684FF0404004F02BFC0190FF
:1028B00041480168019804F025FC8346514604F024
:1028C00029FD81464FF07E5104F01CFA044604F0C5
:1028D000EDF9CDE90401364801684FF0804004F07D
:1028E00011FC834634480168584604F00BFC8146CD
:1028F000304801684FF0804004F004FC83462B48C8
:102900000168584604F0FEFB8246494604F0FAF995
:10291000044604F0CBF9CDE90201DDE9042303F01C
:1029200083FB07464FF06632244B03F0E5FE054675
:1029300003F060FC234908600DB0BDE8F08F2DE97D
:10294000F05F4221D020FEF746FC05464121D02011
:10295000FEF741FC05EB0024204604F073FB8246A1
:102960004FF08E41504604F099FC05D24FF08F4154
:10297000504604F0CFFC82461349504604F030FA2A
:10298000834604F093F98046104A114B03F064FC2F
:10299000064600220F4B03F0AFFE044603F02AFC6C
:1029A0008246504604F012FBBDE8F09F480100202B
:1029B0003C010020440100204001002066A64C405C
:1029C00034010020380100200000AA43A4703D0A11
:1029D000D74342400000244038B50446FB4890F8F5
:1029E0002400C0B114B10220009001E0002000904A
:1029F000F64A1268D17BF54A526810786B4601227C
:102A0000FEF74CFB10B14FF0FF3038BD9DF80010C1
:102A1000EE48417423E0ED48807A10B94FF0FF3062
:102A2000F3E724B1E948407C08B10020EDE714B198
:102A30000120009001E000200090E44A1268D17B60
:102A4000E24A526810786B460122FEF727FB10B16C
:102A50004FF0FF30D9E79DF80010DC4841740020AA
:102A6000D3E738B5002419E0D8480068C07AA042FE
:102A700004D0D6480068407DA04200D10CE0D34984
:102A8000496808786B4601222146FEF769FB10B1C0
:102A90004FF0FF3038BD00BF601CC4B2CB48406867
:102AA0000079A042E0DC0020F4E770B504460D4652
:102AB000C6480068C07AA04204D0C4480068407D7F
:102AC000A04202D14FF0FF3070BDC048406800798D
:102AD000A04202DC4FF0FF30F6E7BC4949680878B5
:102AE0002B4601222146FEF73BFBEDE738B50446B5
:102AF000B64890F82300A04201D1002038BD14B19F
:102B00003020009001E000200090B048807C20B18F
:102B10009DF8000040F002000090AC4890F82200C0
:102B200020B19DF8000040F080000090A74A126894
:102B3000117DA64A526810786B460122FEF7AEFA64
:102B400010B14FF0FF30D9E7A04880F823400020B3
:102B5000D4E738B5044604F0700010B101200090AD
:102B600005E014B10020009001E040200090974A59
:102B70001268917C954A526810786B460122FEF7E4
:102B80008DFA20B1002191488172481E38BD9DF810
:102B9000000020F040018D4801730020009004F0F7
:102BA000400020B99DF8000040F00400009004F0BF
:102BB000200020B99DF8000040F00200009004F0D1
:102BC000100020B99DF8000040F00100009004F0D2
:102BD000080020B99DF8000040F0380000907B4AC2
:102BE0001268D17C794A526810786B460122FEF750
:102BF00055FA20B1002175488172481EC6E724B1FC
:102C0000082C02D00020FFF771FF70488472002169
:102C100001753220FDF782FB0020B7E738B5044686
:102C20006A48807CA04201D1002038BD002C46D0EB
:102C3000664A12681179654A526810786B4601221B
:102C4000FEF78EFA10B14FF0FF30EEE79DF800006E
:102C500020F0200000905D4A126811795B4A5268AA
:102C600010786B460122FEF719FA10B14FF0FF30D1
:102C7000DBE70320FDF752FB02200090534890F859
:102C8000220020B19DF8000040F0800000904F48E5
:102C900090F8230020B19DF8000040F03000009033
:102CA0004A4A1268117D494A526810786B460122DF
:102CB000FEF7F4F9002851D04FF0FF30B5E7434A52
:102CC00012681179414A526810786B460122FEF76A
:102CD00047FA10B14FF0FF30A7E73C48807A00F088
:102CE000010028B19DF8000040F02000009004E0B1
:102CF0009DF8000020F020000090344A12681179FD
:102D0000324A526810786B460122FEF7C7F910B1BB
:102D10004FF0FF3089E70320FDF700FB2B4890F8C8
:102D2000220010B18020009001E000200090274890
:102D300090F8230020B19DF8000040F03000009092
:102D4000224A1268117D214A526810786B4601228E
:102D5000FEF7A4F910B14FF0FF3066E71B4884740A
:102D6000002062E708B51948807A10B94FF0FF30AB
:102D700008BD00200090154A1268D17B134A5268A2
:102D800010786B460122FEF789F910B14FF0FF3041
:102D9000EEE70E4A126851790C4A526810786B4679
:102DA0000122FEF77BF910B14FF0FF30E0E7074A50
:102DB00012681179054A526810786B460122FEF7B5
:102DC0006DF928B14FF0FF30D2E700005C01002020
:102DD000F74890F82400002850D00C200090F44AC6
:102DE00012681179F24A526810786B460122FEF798
:102DF00055F910B14FF0FF30BAE7C0200090EC4811
:102E0000807A00F0010020B19DF8000040F0200021
:102E10000090E74A12681179E54A526810786B46CB
:102E20000122FEF73BF910B14FF0FF30A0E7E04878
:102E3000407C10B10220009001E000200090DC4AAC
:102E40001268D17BDA4A526810786B460122FEF78D
:102E500025F910B14FF0FF308AE700200090D44AE6
:102E600012685179D24A526810786B460122FEF7F7
:102E700015F9002852D04FF0FF3079E70420009078
:102E8000CB4A12681179CA4A526810786B460122FF
:102E9000FEF704F910B14FF0FF3069E7C448807CB9
:102EA00020B9C348807A00F0010010B9402000909A
:102EB00001E060200090BE4A12681179BC4A526855
:102EC00010786B460122FEF7E9F810B14FF0FF30A1
:102ED0004EE7B748407C10B10120009001E000208F
:102EE0000090B34A1268D17BB14A526810786B46A1
:102EF0000122FEF7D3F810B14FF0FF3038E7AC4AAB
:102F000012685179AA4A52681078A94B10330122ED
:102F1000FEF7C4F810B14FF0FF3029E7002027E793
:102F200070B50446002624F00104A14890F824005E
:102F300008B1002070BD9E48807A10B94FF0FF3074
:102F4000F8E79B48057C807A204099490874084638
:102F5000007CA04202D04FF0FF3600E0002614B9FA
:102F60009348007D18B10120FFF736FD02E00020F4
:102F7000FFF732FD3CB1FFF7F5FE20B18C48057438
:102F80004FF0FF30D6E73046D4E738B504468848DE
:102F9000807A10B94FF0FF3038BDBC2C02DB012025
:102FA000009015E0622C02DB0220009010E02A2C39
:102FB00002DB032000900BE0142C02DB04200090C5
:102FC00006E00A2C02DB0520009001E006200090BC
:102FD0007748C07A9DF80010884201D10020DBE7D5
:102FE000734A12689178724A526810786B460122CF
:102FF000FEF754F810B14FF0FF30CDE79DF8001008
:103000006B48C1720020C7E738B50446282C02DDA2
:103010004FF0FF3038BDDCB90020FFF767FD00201E
:103020008DF8000007208DF80100614A1268917C3C
:103030005F4A526810786B460222FEF72FF810B1F3
:103040004FF0FF30E6E70021594801750020E1E725
:103050000120FFF74BFD20208DF80000012C06D148
:1030600000208DF801000520FFF78FFF17E0052CE9
:1030700006DC01208DF801000520FFF786FF0EE039
:10308000142C06DC02208DF801000A20FFF77DFFDA
:1030900005E003208DF801001420FFF776FF9DF86E
:1030A0000100072101EB8010C0B28DF80100404AF9
:1030B0001268917C3E4A526810786B460222FDF7F6
:1030C000EDFF10B14FF0FF30A4E7082138488172BE
:1030D00000210173012101750020FFF721FF00206D
:1030E00098E738B504463248807A10B94FF0FF307F
:1030F00038BD2F4890F8240010B14FF0FF30F7E7AB
:103100002B48007D50B134B1282C04DCE0B2FFF72D
:103110007BFF0020ECE70020FFF776FF042C01DAAC
:10312000042404E0B4F57A7F01DD4FF47A744FF49F
:103130007A7090FBF4F0401EC0B200901C4A1268F6
:1031400051781B4A526810786B460122FDF7A6FFA2
:1031500010B14FF0FF30CBE79DF80000401C4FF45A
:103160007A7191FBF0F081B21148C1810146C989A1
:103170004810FFF70AFF0020BAE738B504460C48AC
:10318000807A10B94FF0FF3038BD022C06D0042CE5
:1031900007D0082C08D0102C0FD10BE00020009095
:1031A0000EE0082000900BE01020009008E00000E6
:1031B0005C0100201820009002E04FF0FF30E3E7B0
:1031C00000BFF948407A9DF80010B0EBE10F01D143
:1031D0000020D9E7F44A1268D179F34A526810788E
:1031E0006B460122FDF75AFF10B14FF0FF30CBE7DD
:1031F0009DF80000C110EC4841720020C4E738B5CA
:103200000446E948807A10B94FF0FF3038BDFA2CF7
:1032100009D0B4F5FA7F09D0B4F57A7F09D0B4F5B6
:10322000FA6F0CD108E0002000900BE0082000901D
:1032300008E01020009005E01820009002E04FF018
:10324000FF30E3E700BFD848007A9DF80010B0EBEC
:10325000E10F01D10020D9E7D34A12689179D24A0F
:10326000526810786B460122FDF718FF10B14FF03D
:10327000FF30CBE79DF80000C010CB49087200205A
:10328000C4E71CB580208DF80000C74A1268917C05
:10329000C54A526810786B460122FDF7FFFE10B157
:1032A0004FF0FF301CBD6420FDF738F800208DF88A
:1032B0000000BD4A1268917CBB4A526810786B4688
:1032C0000122FDF7EBFE10B14FF0FF30EAE7B64AFE
:1032D0001268917DB44A526810786B460622FDF759
:1032E0003FFF10B14FF0FF30DCE79DF80500C0074D
:1032F000400F9DF8031001F0010140EA41009DF8E4
:10330000011001F0010140EA010494B1012C03D144
:103310000121A548C17431E0022C03D10021A2484B
:10332000C1742BE02146A1A002F07CF94FF0FF30E0
:10333000B8E79D4A1268D1789B4A526810786B466C
:103340000122FDF70DFF10B14FF0FF30AAE79DF805
:10335000000000F00F042CB99E4802F063F94FF012
:10336000FF309FE7042C06D19BA002F05BF90121FE
:103370008D48C17402E000218B48C174FF218A4846
:103380008172FF2088490872FF2187484172C1720B
:103390004FF6FF71C181FF21017481740121017316
:1033A00080F82210002180F8231041750175163035
:1033B000016041608160163880F8241080F8251083
:1033C000C1844FF4FA60FFF71AFF10B14FF0FF30DD
:1033D00068E70220FFF7D1FE10B14FF0FF3061E740
:1033E0002A20FFF7D2FD10B14FF0FF305AE732200C
:1033F000FFF777FE10B14FF0FF3053E70020FFF7E3
:103400008FFD10B14FF0FF304CE70020FFF706FCB6
:1034100010B14FF0FF3045E70020FFF79AFB002086
:1034200040E770477CB504460D465F48807A00F05F
:10343000700010B94FF0FF307CBD5B4A1268117B01
:10344000594A526810786B460622FDF789FE10B182
:103450004FF0FF30F0E79DF801009DF8001040EAC2
:10346000012000B220809DF803009DF8021040EA80
:10347000012000B260809DF805009DF8041040EA2C
:10348000012000B2A08015B12846FFF7CAFF002036
:10349000D2E77CB504460D464348807A00F0080028
:1034A00010B94FF0FF307CBD3F4A1268517B3E4A55
:1034B000526810786B460622FDF752FE10B14FF0AD
:1034C000FF30F0E79DF801009DF8001040EA012070
:1034D00000B220809DF803009DF8021040EA012010
:1034E00000B260809DF805009DF8041040EA0120BC
:1034F00000B2A08015B12846FFF793FF0020D2E765
:103500002DE9FE4F05460C462748807A18B94FF042
:10351000FF30BDE8FE8F244A1268917B224A526830
:10352000107802AB0222FDF71BFE10B14FF0FF3006
:10353000EFE79DF809009DF8081040EA012006B267
:1035400014B12046FFF76DFF17494968C88803F09A
:1035500091FD154901904968B1F9080003F072FD29
:103560008346304603F06EFD5946009003F0D2FECC
:103570008246019903F034FC81461F4903F0C2FBE7
:1035800080464FF08F4103F0BDFD074603F01EFD5E
:1035900028600020BDE710B588B004461CB94FF084
:1035A000FF3008B010BD29E05C010020556E737536
:1035B00070706F7274656420736F66747761726582
:1035C0002070726F64756374207265762025642E96
:1035D0000A0000002882000848616C662073656E4E
:1035E0007369746976697479207061727420666F8A
:1035F000756E642E0D0A000000000C42206830B980
:10360000606820B9A06810B9002008B010BDFA4960
:103610004968087806AB03221146FDF7A1FD10B1F9
:103620004FF0FF30F1E79DF81800082101EB201062
:1036300000F00F00ADF800009DF8190001EB20101C
:1036400000F00F00ADF802009DF81A0001EB201009
:1036500000F00F00ADF8040020684100BDF9000043
:10366000403091FBF0F000B2ADF81000606841000E
:10367000BDF90200403091FBF0F000B2ADF812004D
:10368000A0684100BDF90400403091FBF0F000B2A9
:10369000ADF81400D8494968087806AB06221146EF
:1036A000FDF75EFD10B14FF0FF30AEE79DF8190059
:1036B0009DF8181040EA012000B2ADF808009DF80E
:1036C0001B009DF81A1040EA012000B2ADF80A0074
:1036D0009DF81D009DF81C1040EA012000B2ADF8D5
:1036E0000C00BDF81000BDF80810084400B2ADF899
:1036F0001000BDF81200BDF80A10084400B2ADF881
:103700001200BDF81400BDF80C10084400B2ADF86A
:103710001400BDF81000000A8DF81800BDF8100064
:10372000C0B28DF81900BDF81200000A8DF81A0019
:10373000BDF81200C0B28DF81B00BDF81400000ADD
:103740008DF81C00BDF81400C0B28DF81D00AA4908
:103750004968087806AB06221146FDF79FFC10B1B8
:103760004FF0FF3051E700204FE70146A248007AB2
:1037700030B1012807D0022809D003280FD10AE070
:10378000FA2008800EE04FF4FA7008800AE04FF447
:103790007A70088006E04FF4FA60088002E00020AA
:1037A000088000BF00BF0020704701469248407A61
:1037B00030B1012807D0022808D003280CD108E036
:1037C000022008700BE00420087008E00820087050
:1037D00005E01020087002E04FF0FF30704700BF96
:1037E0008548C07C18B108784006000E087000209B
:1037F000F4E701468048C07A082817D2DFE800F0D5
:103800001704070A0D101318BC20088013E062206B
:10381000088010E02A2008800DE0142008800AE0CB
:103820000A20088007E00520088004E000BF00BFF0
:103830000020088000BF00BF0020704701466E488E
:1038400090F8240010B14FF0FF3070476A48C089EB
:1038500008800020F9E7014600200880401E7047DC
:1038600001464FF0FF30704701466348007A30B19F
:10387000012807D0022808D003280CD108E05F48AF
:1038800008600BE05E48086008E05E48086005E0FC
:103890005D48086002E04FF0FF30704700BF002035
:1038A000FBE701465448407A30B1012808D002288D
:1038B0000AD0032810D10BE04FF4804008800EE0BE
:1038C00041F69C7008800AE04FF48050088006E0C2
:1038D0004FF40060088002E04FF0FF30704700BFF7
:1038E0004548C07C10B10888401008800020F5E7EA
:1038F00001464148007C08700020704701463E4860
:10390000807A10B10120087001E0002008700020CA
:10391000704738B504463848807A10B94FF0FF3008
:1039200038BD354A1268117C334A526810786B46AC
:103930000222FDF715FC10B14FF0FF30F0E79DF8C3
:1039400001009DF8001040EA012000B22080002014
:10395000E6E72DE9FE4F0746884692461D46DDF80C
:1039600030B000260024244890F8240010B1601ED6
:10397000BDE8FE8F002028701F48807A10B94FF0F4
:10398000FF30F5E71C48007C10B94FF0FF30EFE73F
:103990001948007C00F0400008B1B01CC6B21648BF
:1039A000007C00F0200008B1B01CC6B21248007CB8
:1039B00000F0100008B1B01CC6B20F48007C00F047
:1039C000080008B1B01DC6B20B4A1268917A0A4AC3
:1039D000526810786B460222FDF7C2FB10B14FF01F
:1039E000FF30C5E79DF801009DF8001040EA01296D
:1039F000B1450BDA0020BBE75C0100200000034367
:103A0000000083423333034233338341FC48406830
:103A10004088B9EB600F17DDF94A1268517CF84A0B
:103A2000526810786B460122FDF79AFB10B14FF0F7
:103A3000FF309DE79DF8000000F0100020B1FFF777
:103A400091F96FF0010093E75046FFF7EAFCEC4A6A
:103A50001268D17AEA4A526810786B463246FDF70E
:103A60007FFB10B14FF0FF3082E799FBF6F0401E6C
:103A70008BF8000000202870B4422AD0E048007C77
:103A800000F0080028B3601C1DF800001DF80410A9
:103A900040EA012000B2A8F80000E01C1DF8001068
:103AA000A01C1DF8000041EA002000B2A8F80200A6
:103AB000601D1DF80010201D1DF8000041EA0020C7
:103AC00000B2A8F80400287840F008002870A01D73
:103AD00084B2B44213D0CA48007C00F0400070B1F8
:103AE000601C1DF800001DF8041040EA012000B21F
:103AF0003880287840F040002870A01C84B2B4427E
:103B000013D0BF48007C00F0200070B1601C1DF88D
:103B100000001DF8041040EA012000B278802878E7
:103B200040F020002870A01C84B2B44213D0B448E6
:103B3000007C00F0100070B1601C1DF800001DF842
:103B4000041040EA012000B2B880287840F010004C
:103B50002870A01C84B200200AE7F8B504460F467E
:103B60001646A74890F8240010B94FF0FF30F8BD72
:103B7000A348807A10B94FF0FF30F8E7A04A1268E6
:103B8000917A9F4A526810786B460222FDF7E8FA54
:103B900010B14FF0FF30EAE79DF801009DF80010EA
:103BA00040EA0125A54203DA00203070401EDEE71E
:103BB000934840684088B5EB600F17DD904A126863
:103BC000517C8F4A526810786B460122FDF7C8FA83
:103BD00010B14FF0FF30CAE79DF8000000F0100070
:103BE00020B1FFF7BFF86FF00100C0E7E2B2844BED
:103BF0001B68D97A824B5B6818783B46FDF7B0FAB0
:103C000010B14FF0FF30B2E795FBF4F0401E30707A
:103C10000020ACE701467A4880F822100020704767
:103C20007CB5054676494968087801AB04220D2128
:103C3000FDF796FA08B107207CBD9DF80700C0F398
:103C400001109DF8041001F0E00140EAE1008DF858
:103C500000009DF80700C0F381009DF8051001F0F9
:103C6000E00140EAE1008DF801009DF8070000F056
:103C700003009DF8061001F0E00140EAE1008DF834
:103C8000020000241CE01DF8040018B9002045F8CB
:103C9000240013E05B4845F8240006E055F82400B2
:103CA000594903F02FFA45F824001DF80400401E7E
:103CB000C0B20DF804000028F0D100BF601CC4B2EF
:103CC000032CE0DB0020B7E72DE9FE4F06460F4648
:103CD00000256846FFF7A4FF002442E056F82400C0
:103CE00057F82410A0EB010ABAF1000F01DB51468E
:103CF00001E0CAF10001084603F0A4F983464FF041
:103D00008F4103F06DF880465DF82400002103F038
:103D100029F916D05DF82410404603F061F8824678
:103D20004FF07E5103F0F6FA814629F0004A3748F9
:103D3000416A504603F0B2FA12D20120A040054376
:103D40000EE03248C169404603F0A8F905D32F4878
:103D5000016A404603F0A2FA02D20120A0400543C6
:103D6000641C032CBADB2846BDE8FE8F2DE9FC5FFE
:103D700006460F46002522494968087801AB032210
:103D80000D21FDF7EDF910B10720BDE8FC9F9DF86E
:103D9000040000F01F008DF804009DF8050000F0FD
:103DA0001F008DF805009DF8060000F01F008DF83B
:103DB0000600002462E056F8240057F82410A0EB17
:103DC000010BBBF1000F01DB594601E0CBF1000113
:103DD000084603F037F94FF08F41009003F000F8E8
:103DE000814601A8005DC0B30849086803F042F9A4
:103DF00083465946064802F0F3FF80460FE0000074
:103E00005C0100207B14AE3E1D5A843F18750008EB
:103E100000B04C45FE49404603F074F9804601A8C5
:103E2000005D401EC0B201A908550028F2D14146EC
:103E3000484602F0D5FF83464FF07E5103F06AFA00
:103E400082462AF0004BF3488169584603F026FA6F
:103E500013D20120A04005430FE0FFE7ED480169C0
:103E6000484603F01BF905D3EA484169484603F088
:103E700015FA02D20120A0400543641C032C9ADBF2
:103E8000284682E72DE9F04F87B005460C4691465B
:103E900001208DF8100000208DF81100DE4A126814
:103EA000917CDD4A5268107804AB0222FDF7F6F8E7
:103EB00020B14FF0FF3007B0BDE8F08FC820FCF70D
:103EC0002DFA00208DF81000D34A1268D17BD24A17
:103ED0005268107804AB0122FDF7E0F810B14FF002
:103EE000FF30E8E7CC4A12685179CB4A5268107823
:103EF00004AB0122FDF7D2F810B14FF0FF30DAE742
:103F0000C54A1268917CC44A5268107804AB0122F9
:103F1000FDF7C4F810B14FF0FF30CCE7BE4A12688D
:103F2000D17DBD4A5268107804AB0122FDF7B6F886
:103F300010B14FF0FF30BEE7B74A12681179B64AA8
:103F40005268107804AB0122FDF7A8F810B14FF0C9
:103F5000FF30B0E70C208DF81000AF4A12681179DD
:103F6000AD4A5268107804AB0122FDF797F810B102
:103F70004FF0FF309FE70F20FCF7D0F9A648806A8A
:103F8000407A8DF81000A44A12689178A24A5268CB
:103F9000107804AB0122FDF781F810B14FF0FF302B
:103FA00089E79D48806A007A8DF810009A4A126865
:103FB0005178994A5268107804AB0122FDF76EF8E7
:103FC00010B14FF0FF3076E7B9F1000F07D09248FB
:103FD000806A807A40F0E0008DF8100004E08E489E
:103FE000806A807A8DF810008B4A126891798A4A2B
:103FF0005268107804AB0122FDF750F810B14FF071
:10400000FF3058E7B9F1000F07D08348806AC07AC3
:1040100040F0E0008DF8100003E07E48C07A8DF893
:1040200010007D4A1268D1797B4A5268107804AB3F
:104030000122FDF733F810B14FF0FF303BE7B9F143
:10404000000F02D0C820FCF769F940208DF810005D
:10405000714A12681179704A5268107804AB0122D3
:10406000FDF71CF810B14FF0FF3024E778208DF8F1
:104070001000694A12685179674A5268107804AB97
:104080000122FDF70BF810B14FF0FF3013E7614943
:104090008889FCF743F900208DF810005E4A126809
:1040A00051795D4A5268107804AB0122FCF7F6FFA3
:1040B00010B14FF0FF30FEE6574A1268917A564A27
:1040C0005268107804AB0222FDF74AF810B14FF0A5
:1040D000FF30F0E69DF811009DF8101040EA012B2A
:1040E0000C209BFBF0F0C6B20020A860686028603E
:1040F000A06060602060824665E0474A1268D17A1D
:10410000454A5268107804AB0C22FDF729F810B12B
:104110004FF0FF30CFE69DF811009DF8101040EAF7
:10412000012000B2ADF808009DF813009DF81210B0
:1041300040EA012000B2ADF80A009DF815009DF894
:10414000141040EA012000B2ADF80C00BDF90810CF
:10415000206808442060BDF90A1060680844606067
:10416000BDF90C10A0680844A0609DF817009DF8E8
:10417000161040EA012000B2ADF800009DF81900C9
:104180009DF8181040EA012000B2ADF802009DF839
:104190001B009DF81A1040EA012000B2ADF804009F
:1041A000BDF90010286808442860BDF9021068684D
:1041B00008446860BDF90410A8680844A8600AF1C2
:1041C000010000F0FF0AB24597DB1248D0F800C0AA
:1041D0002868C117090441EA104107046246002318
:1041E000384601F0FAF932460023CDE9020101F028
:1041F000F4F928600748D0F800C06868C1170904BE
:1042000041EA1041070462460023384606E00000F8
:1042100054E3853F187500085C01002001F0DDF9CA
:1042200032460023CDE9020101F0D7F96860FE486B
:10423000D0F800C0A868C117090441EA104107047A
:1042400062460023384601F0C8F932460023CDE922
:10425000020101F0C2F9A860F348D0F804C0216857
:10426000C817000440EA11480F046246002338468C
:10427000414601F0B2F932460023CDE9020101F0D6
:10428000ACF92060E848D0F804C06068C1170904A0
:1042900041EA1041070462460023384601F09DF9C7
:1042A00032460023CDE9020101F097F96060DE4853
:1042B000D0F804C0A068C117090441EA10410704FE
:1042C00062460023384601F088F932460023CDE9E2
:1042D000020101F082F9A060A068002804DDA06856
:1042E000A0F58030A06003E0A06800F58030A060F9
:1042F0000020E0E538B50446CC4890F82400A04200
:1043000001D1002038BD24B3C84890F8250010B969
:104310004FF0FF30F6E70020FEF75EFB0020FEF7CF
:104320007DFCC249C88CFEF7DCFE00200090BF492E
:10433000496808786B4601222321FCF7AFFE012172
:10434000BA4880F824100120FEF746FBFEF70AFD6C
:1043500013E00020FEF740FBB448007C0090B34916
:10436000496808786B4601222321FCF797FE00215B
:10437000AE4880F82410FEF7F5FC0020C2E72DE9D6
:10438000F04F8DB083460F4602200C90A74890F85E
:10439000240020B10020FFF7ADFF012600E0002639
:1043A00003A8FFF7E2F905A8FFF7FFF901A8FFF757
:1043B00020FA02A8FFF742FA9C4890F80AA004A845
:1043C000FFF796FA002407E0002239465846FFF727
:1043D00059FD00B902E0641C022CF5DB00BF022C81
:1043E00001D1002528E0002407E0012206A909A840
:1043F000FFF748FD00B902E0641C022CF5DB00BFAA
:10440000022C01D1002517E006A93846FFF75CFC15
:1044100000F0FF0809A95846FFF7A8FC00F0FF09C3
:104420000025B9F1000F01D145F00105B8F1000FE9
:1044300001D145F0020500BFFF207C490872FF2131
:104440007A484172C1724FF6FF71C181FF218172BA
:10445000017401210173BDF80C00FEF7D0FE9DF838
:104460001400FEF78AFEBDF80400FEF78EFDBDF8CD
:104470000800FEF736FE5046FEF76BFB9DF8100075
:10448000FEF74EFD16B10120FFF734FF28460DB0B0
:10449000BDE8F08FF8B504460D46164616B94FF044
:1044A000FF30F8BD6148807A10B94FF0FF30F8E76F
:1044B00020128DF80000E0B28DF801009DF8010097
:1044C00028445A4949684989884202DD4FF0FF3043
:1044D000E7E7564A1268117E544A526810786B46D4
:1044E0000222FCF7DBFD10B14FF0FF30D9E7EAB252
:1044F0004E4B1B68597D4D4B5B6818783346FCF773
:10450000CDFD10B14FF0FF30CBE70020C9E7F8B583
:1045100004460D46164616B94FF0FF30F8BD434825
:10452000807A10B94FF0FF30F8E720128DF80000C4
:10453000E0B28DF801009DF8010028443B4949682C
:104540004989884202DD4FF0FF30E7E7374A1268B9
:10455000117E364A526810786B460222FCF79EFDA7
:1045600010B14FF0FF30D9E7EAB2304B1B68597DEC
:104570002E4B5B6818783346FCF7F2FD10B14FF014
:10458000FF30CBE70020C9E72DE9F04385B00546B1
:104590000E4690469946254890F8250020B14FF0E8
:1045A000FF3005B0BDE8F08316B94FF0FF30F8E7F3
:1045B000002423E0281B102801DD102000E0281B28
:1045C00087B2321939462046FFF764FF10B14FF029
:1045D000FF30E6E701AA39462046FFF798FF10B101
:1045E0004FF0FF30DDE730193A4601A901F096F8A7
:1045F00010B16FF00100D4E7E01984B2AC42D9DB0E
:104600004FEA28208DF8000008F0FF008DF8010027
:10461000064A1268917E054A526810786B4602225B
:10462000FCF73CFD38B103E0187500085C01002080
:104630004FF0FF30B5E701218A4880F82510A0F837
:1046400026900020ADE70146864890F824000870C7
:104650000020704702464FF0FF30704701464FF090
:10466000FF307047F8B505460F461446002C70D051
:10467000B5F5FF5F01DDFF2605E0202D01DA0126FB
:1046800001E0C5F3471607B90127282C02DD4FF0DA
:10469000FF30F8BD7348407D28BB724890F8240075
:1046A00038B10020FFF726FE01216E4880F8201067
:1046B00003E000216B4880F820106A481630FFF7AD
:1046C00054F868481830FFF770F866481A30FFF75A
:1046D00090F864481C30FFF7B1F86248817A81771E
:1046E0001F30FFF705F90020FEF776F90020FEF7EE
:1046F0008BFC00208DF800005A4A12689178594AC4
:10470000526810786B460122FCF7C8FC10B14FF0DC
:10471000FF30BEE740208DF80000524A1268D17B7E
:10472000504A526810786B460122FCF7B7FC00B182
:1047300065E08DF800608DF801704A4A1268117AC0
:10474000484A526810786B460222FCF7A7FC08B171
:1047500055E047E00520FBF7E1FD4248407A07219C
:1047600001EBC000C0B28DF800003E4A1268D1795A
:104770003C4A526810786B460122FCF78FFC00B16E
:104780003DE020208DF80000012C03D100208DF8A1
:1047900001000EE0052C03DC01208DF8010008E08B
:1047A000142C03DC02208DF8010002E003208DF8B8
:1047B00001009DF80100072101EB8010C0B28DF8C7
:1047C0000100284A1268917C264A526810786B468C
:1047D0000222FCF763FC00B111E001212148417580
:1047E000002056E71F4A1632002103E0505C00B15A
:1047F00005E0491C0C29F9D34FF0FF3049E7FF20B1
:1048000018490872FF2117484172C1724FF6FF71B3
:10481000C181FF2181720174012101730146887FEA
:10482000FEF797F90F49C88AFEF7E9FC0D49087EA3
:10483000FEF7A3FC0B49488BFEF7A7FB0949888BC1
:10484000FEF74FFC0749C87FFEF76AFB054890F862
:10485000200010B10120FFF74DFD002101484175F6
:10486000002016E75C01002010B5C8234FF48062D9
:10487000F74940F6F630FFF787FE10BD10B586B059
:104880000446F4A000680390F3A000680290F3A02F
:1048900000680190F2A00068009004F0030003A9F2
:1048A000085C8DF8140003A8C4F3C101405C8DF8C6
:1048B000150003A8C4F38111405C8DF8160004F0C4
:1048C000030002A9085C8DF8100002A8C4F3C1011E
:1048D000405C8DF8110002A8C4F38111405C8DF892
:1048E000120005AA032140F22640FFF7D3FD18B1BC
:1048F0004FF0FF3006B010BD04AA032140F22A4059
:10490000FFF7C8FD10B14FF0FF30F3E701980590B5
:104910000098049004F0040058B19DF8140040F091
:1049200001008DF814009DF8100040F001008DF892
:10493000100004F0200058B19DF8150040F001006F
:104940008DF815009DF8110040F001008DF8110060
:1049500004F4807058B19DF8160040F001008DF805
:1049600016009DF8120040F001008DF8120005AA13
:1049700003214FF48860FFF78DFD10B14FF0FF3039
:10498000B8E704AA032140F23140FFF783FD10B1DC
:104990004FF0FF30AEE7B34804810020AAE71FB50F
:1049A0000446B048007A00F0030054F8200001905B
:1049B000AC48007A00F0040010B101984042019028
:1049C000A848007AC0F3C10054F820000290A5481E
:1049D000007A00F0200010B1029840420290A148F5
:1049E000007AC0F3811054F8200003909D4800899C
:1049F00000F4807010B10398404203909A490198E6
:104A000080FB0101800F40EA8100019096490298E5
:104A100080FB0110820042EA917002909249039853
:104A200080FB0110820042EA917003900198000E11
:104A30008DF800000198000C8DF801000198000A23
:104A40008DF802000198C0B28DF803006A46042177
:104A50004FF47470FFF71EFD18B14FF0FF3004B033
:104A600010BD0298000E8DF800000298000C8DF821
:104A700001000298000A8DF802000298C0B28DF879
:104A800003006A4604214FF47570FFF703FD10B16F
:104A90004FF0FF30E3E70398000E8DF80000039815
:104AA000000C8DF801000398000A8DF802000398AD
:104AB000C0B28DF803006A4604214FF47670FFF708
:104AC000E9FCCCE770B588B0064601A8FEF7E9FE20
:104AD000BDF804000021C90341EA5045C403614800
:104AE000007A00F0030056F8200005905D48007A37
:104AF00000F0040010B10598404205905948007A32
:104B0000C0F3C10056F8200006905648007A00F025
:104B1000200010B10698404206905248007AC0F337
:104B2000811056F8200007904E48008900F48070EC
:104B300010B10798404207900598C117A0FB0423C5
:104B400001FB043100FB0510810041EA92700590E1
:104B50000698C117A0FB042301FB043100FB0510DC
:104B6000810041EA927006900798C117A0FB0423C8
:104B700001FB043100FB0510810041EA92700790AF
:104B80000598000E8DF808000598000C8DF80900B6
:104B90000598000A8DF80A000598C0B28DF80B0040
:104BA0000698000E8DF80C000698000C8DF80D008C
:104BB0000698000A8DF80E000698C0B28DF80F0016
:104BC0000798000E8DF810000798000C8DF8110062
:104BD0000798000A8DF812000798C0B28DF81300EC
:104BE00002AA0C214FF42570FFF754FC08B070BDE9
:104BF00030B585B004461DA207CA02AB07C3C82C56
:104C000003DD4FF0FF3005B030BDC82090FBF4F05D
:104C1000401E85B2280A8DF80000E8B28DF8010028
:104C20006A46022140F21620FFF734FC10B14FF023
:104C3000FF30E8E702AA0C2140F6C120FFF72AFC6A
:104C400010B14FF0FF30DEE7064884810020DAE73C
:104C5000407500084CCD6C000CC92C00365676000F
:104C6000264666002C02002009E3CA02FEF2ABC40D
:104C7000AAF1DFDFBBAFDFDF0146FC488089088097
:104C8000002070472DE9FC4706460F4606F0070056
:104C900010B1B7F5C86F03DD4FF0FF30BDE8FC87FA
:104CA000384602F0E7F98146F14902F099F880466A
:104CB0006846FEF77AFD9DF80000022806D0042819
:104CC00016D0082826D0102848D135E04FF08D4165
:104CD000404602F017FA814602F094F984B2E549A1
:104CE000404602F00FFA814602F08CF985B238E0B6
:104CF0004FF08C41404602F005FA814602F082F9FD
:104D000084B2DD49404602F0FDF9814602F07AF9AD
:104D100085B226E04FF08B41404602F0F3F9814620
:104D200002F070F984B2D549404602F0EBF98146B1
:104D300002F068F985B214E04FF08A41404602F073
:104D4000E1F9814602F05EF984B2CD49404602F0B5
:104D5000D9F9814602F056F985B202E04FF0FF30F2
:104D60009CE700BF20128DF80400E0B28DF805002A
:104D700028128DF80600E8B28DF8070006F0010051
:104D8000A0B101AA02214FF4EA70FFF783FB10B132
:104D90004FF0FF3082E70DF1060202214FF49270CE
:104DA000FFF778FB10B14FF0FF3077E706F0020015
:104DB000A0B101AA02214FF4EC70FFF76BFB10B118
:104DC0004FF0FF306AE70DF1060202214FF49470B4
:104DD000FFF760FB10B14FF0FF305FE706F0040013
:104DE000A0B101AA02214FF4EE70FFF753FB10B1FE
:104DF0004FF0FF3052E70DF1060202214FF496709A
:104E0000FFF748FB10B14FF0FF3047E7002045E7C0
:104E100038B504460020009004F0010020B19DF850
:104E2000000040F03000009004F0020020B19DF836
:104E3000000040F00C00009004F0040020B19DF848
:104E4000000040F0030000906A4601214FF4A47076
:104E5000FFF720FB38BD38B50446012C01DA0124E8
:104E600002E0042C00DD0424601EC0B200906A46FB
:104E7000012140F24F10FFF70DFB38BD38B5044655
:104E8000052094FBF0F085B228128DF80000E8B2FE
:104E90008DF801006A4602214FF4EF70FFF7FAFA2D
:104EA00038BD38B50446052094FBF0F085B22812D1
:104EB0008DF80000E8B28DF801006A4602214FF437
:104EC000ED70FFF7E7FA38BDF8B505460E464FF42A
:104ED0007A7095FBF0F000FB06F4200E8DF80000D0
:104EE000200C8DF80100200A8DF80200E0B28DF848
:104EF00003006A4604214FF4AE70FFF7CBFAF8BD09
:104F000038B50446052094FBF0F084B220128DF8E9
:104F10000000E0B28DF801006A4602214FF4AD7046
:104F2000FFF7B8FA38BD38B50446052094FBF0F019
:104F300084B220128DF80000E0B28DF801006A46BC
:104F400002214FF4AC70FFF7A5FA38BD38B504461E
:104F500014B94FF0FF3038BD6A4604214FF4587041
:104F6000FFF7D5FA10B14FF0FF30F4E79DF80000DD
:104F700000069DF8011040EA01409DF8021040EA49
:104F800001209DF80310084320600020E3E738B5B6
:104F90000446200E8DF80000200C8DF80100200A38
:104FA0008DF80200E0B28DF803006A4604214FF448
:104FB0005870FFF76FFA38BD38B5044614B94FF092
:104FC000FF3038BD6A4604214FF47170FFF79FFA35
:104FD00010B14FF0FF30F4E79DF8000000069DF897
:104FE000011040EA01409DF8021040EA01209DF8BE
:104FF0000310084300EB8000800020600020E0E701
:1050000038B504461420B4FBF0F4200E8DF80000EF
:10501000200C8DF80100200A8DF80200E0B28DF816
:1050200003006A4604214FF47170FFF733FA38BD6C
:1050300038B5044664B120208DF8000028208DF892
:10504000010030208DF8020038208DF8030004E0C4
:10505000A3220421684600F08DFB6A46042140F635
:105060009E20FFF717FAFDF77DFE38BD2C020020C9
:1050700000004843000040460000C0450000404595
:105080000000C04438B5044664B1C0208DF800006B
:10509000C2208DF80100C4208DF80200C6208DF8D2
:1050A000030004E08B220421684600F063FB6A469B
:1050B000042140F69820FFF7EDF9FDF753FE38BDC7
:1050C0003EB504466CB1FDA1D1E900208968CDE967
:1050D000002002916A4609214FF49760FFF7DAF940
:1050E0003EBDF9A2D2E900109268CDE9010200911B
:1050F0006A4609214FF49760FFF7CCF9F0E73EB517
:10510000044602208DF80000CA208DF80100E3203B
:105110008DF8020009208DF803006A4604216820FA
:10512000FFF7B8F9A3208DF8000004F0400048B163
:10513000C0208DF80100C8208DF80200C2208DF833
:10514000030006E0A3208DF801008DF802008DF821
:10515000030004F4C07048B1C4208DF80400CC20D2
:105160008DF80500C6208DF8060006E0A3208DF816
:1051700004008DF805008DF80600A3208DF80700C7
:105180008DF808008DF809006A460A2140F6A7202C
:10519000FFF780F904F0030018B120208DF800001B
:1051A00002E0D8208DF800006A46012140F6B620C2
:1051B000FFF770F904F0200018B10120FFF780FF1D
:1051C00002E00020FFF77CFF04F4C07008B304F491
:1051D000807060B1B2208DF800008B208DF8010046
:1051E000B6208DF802009B208DF803000BE0B02064
:1051F0008DF8000080208DF80100B4208DF80200A9
:1052000090208DF803006A46042140F6A220FFF7A3
:1052100041F904F0010020B3F8208DF800006A463F
:1052200001214FF40B60FFF735F9FA210720FFF752
:1052300029FD0720FFF7ECFD0120FFF70CFE64209D
:10524000FFF71CFE4FF4FA70FFF72BFEC821A148B0
:10525000FFF73AFE2820FFF753FE0A20FFF763FE10
:1052600008E0D8208DF800006A4601214FF40B6059
:10527000FFF710F904F0020018B1D9208DF80000F2
:1052800002E0D8208DF800006A46012140F23D700E
:10529000FFF700F904F0040018B10120FFF7F2FE57
:1052A00002E00020FFF7EEFE04F0100018B101202C
:1052B000FFF7BEFE02E00020FFF7BAFE44F0080050
:1052C00085494881FDF74EFD00208349887304F02D
:1052D000400018B10846807B801D887304F4C070BC
:1052E00020B17D48807B801D7B49887304F01400C9
:1052F00020B17948807B10307749887304F003002F
:1053000020B17548807B001D7349887300203EBD25
:105310000146714840890880002070472DE9F0411E
:105320000446E07800F0C006E07800F03F056078C1
:1053300000F0010098B1EF102846E91705EB517114
:10534000C910A5EBC101491C01F0FF0862480068C3
:1053500020B16148414602683846904700BF6078F6
:1053600000F0080030B15C48406818B1B0115A4AEA
:10537000516888470020BDE8F08110B586B004462A
:1053800056A207CA03AB07C357A207CA8DE8070096
:10539000012C09D0022C0ED103AA0B2140F6822049
:1053A000FFF778F806B010BD6A460B2140F6822060
:1053B000FFF770F8F6E74FF0FF30F3E72DE9F04F15
:1053C0008DB00746884615469946DDE9166B0024E0
:1053D000002030804049887B5A4605A9FEF7BDFB76
:1053E00018B1601E0DB0BDE8F08F3B48807A00F028
:1053F0001400002861D09DF8140000069DF81510D7
:1054000040EA01409DF8161040EA01209DF817106F
:10541000084328609DF8180000069DF8191040EA1E
:1054200001409DF81A1040EA01209DF81B10084326
:1054300068609DF81C0000069DF81D1040EA0140C0
:105440009DF81E1040EA01209DF81F100843A86037
:105450009DF8200000069DF8211040EA01409DF8CB
:10546000221040EA01209DF823100843E86004F16F
:105470001000C4B2286800140190686800140290FB
:10548000A86800140390E868001404900198404351
:10549000029901FB0100039901FB0100049901FB42
:1054A000010ABAF1706F02DBBAF1885F22DDFDF705
:1054B00059FC00203080401E94E721E0B8AAB38D4B
:1054C000B4980D355D000000B8AAAAAAB088C3C57B
:1054D000C700000009E3CA022C020020D8B1B9F3CA
:1054E0008BA391B609B4D900DAB1B9F38BA391B605
:1054F000DAB4DA00B6F9000040F48070308000BF02
:105500003448807A00F0400020B305A9601C085C94
:10551000095D40EA012000B2A8F8000005A9E01CDE
:10552000095C05AAA01C105C41EA002000B2A8F8A2
:10553000020005A9601D095C201D105C41EA0020E5
:1055400000B2A8F80400A01DC4B2B6F9000040F0F3
:10555000080030801F48408900F4C07008B305A9D6
:10556000601C085C095D40EA012000B2388005A992
:10557000E01C095C05AAA01C105C41EA002000B2F6
:10558000788005A9601D095C201D105C41EA00209F
:1055900000B2B880A01DC4B2B6F9000040F070009F
:1055A00030800C48807A00F0030018B105A9081972
:1055B000FFF7B4FE4846FDF734FF002012E701462E
:1055C0000448016000207047014602484160002005
:1055D000704700002C020020704710B54C1084EA80
:1055E000530404D54042C1F1000138BF491E1B429B
:1055F00004D55242C3F1000338BF5B1E00F0C6F869
:1056000014F0804F04D04042C1F1000138BF491E60
:1056100014F0004F04D05242C3F1000338BF5B1EA8
:1056200010BD00000FB4044910B503AA029800F0A1
:1056300089F910BC5DF814FB400000202DE9F04111
:105640000E460446002020622046E168884730B3B9
:10565000252805D0D4E901219047206A401CF2E7B3
:10566000E168204600278847050018D0A5F14100D1
:10567000192802D820354FF40067324629462046C3
:105680002760FAF78DFD40B1012804D0F61D26F001
:1056900007060836D8E7361DD6E72846DAE7206A37
:1056A000BDE8F0812DE9F041064600241068752917
:1056B000314616A510D0AFF30080002802DA404230
:1056C00013A507E031688A0701D512A502E0490752
:1056D00004D511A5012401E0AFF3008000210A22C6
:1056E00006F1240709E0B0FBF2FCB0FBF2F302FB89
:1056F0001C00303078541846491C0028F3D123464A
:105700002A463046BDE8F04100F0C2B80000000073
:105710002D0000002B0000002000000040EA0103E3
:1057200010B59B070FD1042A0DD310C808C9121F4A
:105730009C42F8D020BA19BA884201D9012010BD84
:105740004FF0FF3010BD1AB1D30703D0521C07E051
:10575000002010BD10F8013B11F8014B1B1B07D1B5
:1057600010F8013B11F8014B1B1B01D1921EF1D126
:10577000184610BD02F0FF0343EA032242EA024248
:1057800000F0F4B8704770477047704753EA020C56
:1057900000F069802DE9F04B4FF00006002B1FBF91
:1057A000B3FA83F503FA05F424FA05F65E4012BF56
:1057B0001643B2FA82F502FA05F4C5F120051EBFC0
:1057C00022FA05FC44EA0C04203556EA044C4FEA60
:1057D000144418BF641C4FF000084FF000099042B9
:1057E00071EB030C39D3002919BFB1FA81F701FA23
:1057F00007F6B0FA80F700FA07F6C7F120071EBFD8
:1058000020FA07FC46EA0C062037B6FBF4FCA7EBAF
:105810000507103F07F01F0BCBF120060CFA0BFB1E
:105820002CFA06F644BFB3460026202FA4BF5E46DE
:105830004FF0000B5BEA060C08BF4FF0010B19EBB1
:105840000B09ABFB027C48EB0608C01B06FB02CC35
:105850000BFB03CC71EB0C01C1E70B460246414642
:105860004846BDE8F08B13B54FF000004FF0000143
:10587000AFF30080BDE81C40704710B500F096F80B
:10588000006810BD10B5044600F090F8046010BD2B
:105890002DE9F0470D4699469246044600F124084A
:1058A0000168880604D5E06921F01001216000E05C
:1058B0000120A84201DD471B00E00027A1697A19F9
:1058C00002EB0900081AA0612078C00602D4204625
:1058D000AFF30080002608E0D4E901211AF80600A1
:1058E0009047206A401C761C20624E45F4DB2078ED
:1058F000C0060AD52046AFF3008006E0D4E90121B6
:1059000030209047206A401C2062381EA7F1010712
:10591000F4DC07E0D4E9012118F805009047206A7B
:10592000401C2062281EA5F10105F3DC2046AFF3E0
:1059300000802078000602D50220BDE8F087012013
:10594000FBE70000074B70B50D467B4400F037F8CD
:105950000446284600F046F810B14FF0FF3070BD05
:10596000204670BDD3ACFFFF4FF000020429C0F009
:10597000128010F0030C00F03B80CCF1040CBCF161
:10598000020F18BF00F8012BA8BF20F8022BA1EBD3
:105990000C0100F02DB85FEAC17C24BF00F8012B98
:1059A00000F8012B48BF00F8012B704700487047F2
:1059B0003C02002001694A1C02610878704700B56A
:1059C0008FB0CDE901310021059105497944CDE938
:1059D000031011466846FFF731FE0FB000BD00000E
:1059E000E5FFFFFF007B00F0800070474FF00002F2
:1059F00000B5134694469646203922BFA0E80C50C5
:105A0000A0E80C50B1F12001BFF4F7AF090728BF9F
:105A1000A0E80C5048BF0CC05DF804EB890028BF1B
:105A200040F8042B08BF704748BF20F8022B11F044
:105A3000804F18BF00F8012B7047000000487047E6
:105A40003C0200207546FFF7F9FFAE4605006946A7
:105A5000534620F00700854618B020B5FAF7CAFB78
:105A6000BDE820404FF000064FF000074FF000085F
:105A70004FF0000B21F00701AC46ACE8C009ACE8E0
:105A8000C009ACE8C009ACE8C0098D46704710B544
:105A90000446AFF300802046BDE81040FAF792BB01
:105AA000490050EAC12018BF04204A0D18BF40F039
:105AB000010040F2FF72B2EB515F08BF40F00200FC
:105AC000012808BF052070472DE9F0414F1E00EB6B
:105AD000C7010446D1E9000115461E4637F006020B
