:020000040800F2
:10000000E806002095010008990100089B010008FE
:100010009D0100089F010008A101000800000000E8
:10002000000000000000000000000000A301000824
:10003000A501000800000000A7010008A9010008B0
:10004000AB010008AB010008AB010008AB010008E0
:10005000AB010008AB010008AB010008AB010008D0
:10006000AB010008AB010008AB010008AB010008C0
:10007000AB010008AB010008AB010008AB010008B0
:10008000AB010008AB010008AB010008AB010008A0
:10009000AB010008AB010008AB010008AB01000890
:1000A000AB01000865070008AB010008AB010008C0
:1000B000AB010008AB010008AB010008AB01000870
:1000C000AB010008AB010008AB010008AB01000860
:1000D000AB010008AB010008AB010008AB01000850
:1000E000AB010008AB010008AB01000800F002F80A
:1000F00000F03AF80AA090E8000C82448344AAF188
:100100000107DA4501D100F02FF8AFF2090EBAE885
:100110000F0013F0010F18BFFB1A43F0010318473B
:100120001827000038270000103A24BF78C878C18B
:10013000FAD8520724BF30C830C144BF04680C60ED
:10014000704700000023002400250026103A28BF35
:1001500078C1FBD8520728BF30C148BF0B60704739
:100160001FB51FBD10B510BD01F06CF81146FFF7AB
:10017000F7FF00F02BF801F08AF803B4FFF7F2FF65
:1001800003BC00F011FA000030BF72B662B680F313
:100190000888704708480047FEE7FEE7FEE7FEE7ED
:1001A000FEE7FEE7FEE7FEE7FEE7FEE70348044959
:1001B000044A054B70470000ED000008E8000020ED
:1001C000E8060020E8020020E8020020092000F0F4
:1001D00092F9482000F032F84FF4FA6000F066F827
:1001E00000F08AFA00F06CFA4FF4E131482000F098
:1001F00004FA00F0E5FA642000F058F800F066FD1B
:1002000015E00B48007850B10020094908700948F2
:10021000006808B9012000E000200649086006488F
:10022000007820B100200449087000F065FFE8E77D
:1002300006000020B4012242050000204FF0E0211A
:10024000096921F004014FF0E0221161C21700EBAF
:100250005272C2F3C702234B1A701946097801EB98
:100260004102C2EBC1114FF6FF7202EAC1011E4A00
:100270001180704701461B4A12784A434FF0E02331
:100280005A6100229A6101221A6100BF4FF0E022F8
:10029000106900F001021AB100F48032002AF5D092
:1002A00000224FF0E0231A619A61704701460E4A1E
:1002B00012884A434FF0E0235A6100229A610122DA
:1002C0001A6100BF4FF0E022106900F001021AB17C
:1002D00000F48032002AF5D000224FF0E0231A61AA
:1002E0009A6170470000002002000020A34A0A40E3
:1002F0000243A34B1A6070470146072323EA010219
:1003000012029F4B1B1D18684FF6FF0318409D4BB0
:10031000184310439A4B1B1D186070472DE9F0419C
:100320000746884614461D462846FFF7E5FFC5F1F7
:10033000040007FA00F60F20284100EA08000643EF
:1003400006F00F06E21704EBD2625211920002F19E
:10035000E022D2F800212146E31704EBD3635B11BE
:10036000A4EB431C012303FA0CF31A432046E317C2
:1003700004EBD3635B119B0003F1E023C3F800217E
:100380008148005D40EA06107F490855BDE8F081CC
:1003900070B504460B46CE1701EB9676C6F3870080
:1003A000CE1701EB9676B610A1EB8606B606350E93
:1003B000764B9B6943F00103744EB3614FEAB63349
:1003C00053F820300F26AE40B343714E46F820302C
:1003D000334653F8203004FA05F61E436C4B43F8BD
:1003E00020606C4B1B6801268E403343694E33609E
:1003F00002F0010343B1674B0C331B6801268E40AA
:100400003343644E0C36336002F0020343B1614B58
:1004100008331E6801238B401E435E4B08331E6069
:1004200070BD00B5002059490861C86014204861BA
:1004300000208861C8610846006840F0010008603B
:1004400008464068544908405049486008460068DA
:10045000524908404D4908600846006820F4802051
:1004600008600846406820F4FE004860002088606C
:1004700000214FF00060FFF739FF00BD10B5404884
:100480000830006840F004003D49083108603F48EA
:10049000C06940F080503D49C8614148406840F41F
:1004A00080703F4948600846006840F004000860DA
:1004B0000846006840F002000860FFF765FE10BDC6
:1004C0003048001D2E49091D086070470146490645
:1004D0002E4A926942F001022C4B9A612C4A083A4A
:1004E000526822F0E0622A4B083B5A601A46526872
:1004F0000A435A60704730B504460025FFF791FF64
:100500002248006840F480302049086000BF1F483E
:100510000068400C0028FAD04FF480601B49486006
:10052000A01EC4B20846406840EA844048600846BD
:10053000406840F4803048601A48006840F032005B
:10054000184908601148006840F080700F49086041
:1005500000BF0E480068400E0028FAD00B484068E3
:1005600040F002000949486005E008484068C0F3CF
:10057000870505F00305022DF7D130BD80FFFF1F71
:1005800008ED00E00000FA0500E400E00010024081
:1005900008000140000401400000FFF8FFFFF6FEE4
:1005A0000070004000200240014600BF002070475C
:1005B00000BF3F4A128802F04002002AF9D0C2B2BE
:1005C0003B4B1B1D1A8070473949091D088000BF2D
:1005D0003749098801F040010029F9D0704700B57A
:1005E00002460B4603E01078FFF7EEFF521C181E80
:1005F000A3F10101CBB2F6D100BD2DE9F05F0546B4
:100600000E46300101F088FE81462A4905FB01F0C3
:1006100001F082FE8246494601F068FD07463846F1
:1006200001F042FE84B2204601F076FE8346394650
:1006300001F0B7FF82464FF0834101F0B5FE8146DD
:1006400001F032FE80464FF6FF7000EA041404EB1E
:10065000080084B21848806940F004001649886197
:100660000846806940F4804088611448006820F49E
:100670007F60124908600846006840F40B6008601B
:100680000D48C06840F480400B49C8600846C06807
:1006900020F48040C860064808300480001D0088AF
:1006A00042F20C01084302490C310880BDE8F09F7A
:1006B0000038014040420F00001002400408014091
:1006C0000B48806940F0100009498861094840687A
:1006D00020F47000074948600846406840F4401024
:1006E00048600846C06840F40050C8607047000089
:1006F000001002400010014010B52C48806940F401
:1007000000602A49886141F61F402949088031204C
:10071000091D088000202649091F08802448283820
:10072000008840F0800022492839088020481C3881
:10073000008840F001001E491C39088008460088E6
:1007400040F0400008801A482838008840F0010036
:100750001749283908800023192203210120FFF7B7
:10076000DDFD10BD124818380088E8B1002010499E
:100770001839088001200F4908700F480078401C84
:100780000D49087008460078642190FBF1F201FBE6
:10079000120010B901200949087007480078C828DC
:1007A00002D1002004490870704700000010024088
:1007B000282C014005000020040000200600002035
:1007C000F748806940F00800F5498861F5480068FD
:1007D00020F0FF00F34908600846006840F033004D
:1007E0000860704710B5EF48006820F0F000ED4950
:1007F00008600846006840F0300008600120EA49BF
:100800000860EA48D0F8240108B9002010BD012092
:10081000E549091F0860FFF72DFD0020E349C1F8F5
:10082000A401E1488038006808B10020EEE701200B
:10083000FFF720FD0020DC49091F08600120E5E7E3
:1008400010B5D848006820F0F000D6490860084686
:10085000006840F0300008600020D349091F08609C
:10086000D249C1F8A4010120FFF704FD0120CE49BF
:10087000091F0860CD49C1F8A401FFF7FBFC10BDBA
:1008800010B50024C748006820F0F000C549086092
:100890000846006840F0800008600120C2490860F6
:1008A000FFF7E8FC0120C149C1F8A001FFF7E2FC15
:1008B0000AE0601CC4B2322C03DDFFF7C1FF002048
:1008C00010BD0120FFF7D6FCB7488038006800282B
:1008D000EFD1B549091F08600120F1E710B50020EC
:1008E000B149091F0860AF48006820F0F000AD4929
:1008F00008600846006840F0300008600020AB49FE
:10090000C1F8A4010120FFF7B5FC0120A649091F89
:100910000860FFF7AFFC0020A449C1F8A00110BD9A
:1009200010B50020A049091F08609E48006820F00B
:10093000F0009C4908600846006840F030000860FC
:1009400001209A49C1F8A401FFF794FC01209649BF
:10095000091F0860FFF78EFC00209449C1F8A00130
:1009600010BD70B504468F48006820F0F0008D4936
:1009700008600846006840F03000086000208A499E
:10098000091F0860002516E0E00987490860600635
:10099000040E0120FFF76EFC01208449C1F8A0017C
:1009A000FFF768FC00208049091F08600120FFF75D
:1009B00061FC681CC5B2082DE6DB70BD2DE9F04175
:1009C00005460E4617469846FFF70CFF10B9012062
:1009D000BDE8F0816906080EFFF7C3FFFFF750FF7F
:1009E00018B9FFF72DFF0120F2E73046FFF7B9FFF6
:1009F000FFF746FF00240BE018F80400FFF7B1FFF3
:100A0000FFF73EFF18B9FFF71BFF0020E0E7641C6B
:100A1000BC42F1DBFFF714FF0020D9E770B50546B3
:100A200000246048006820F0F0005E490860084635
:100A3000006840F080000860002617E000205A4956
:100A4000091F08600220FFF715FC01205749C1F873
:100A5000A0016006040E54488038006808B1601C8C
:100A6000C4B20220FFF706FC701CC6B2082EE5DBFC
:100A700015B1FFF733FF01E0FFF752FF204670BDCD
:100A80002DE9F04106460F4614461D46FFF7AAFE23
:100A900010B90120BDE8F0817106080EFFF761FF73
:100AA000FFF7EEFE18B9FFF7CBFE0120F2E738465C
:100AB000FFF757FFFFF7E4FEFFF794FE012101EB7C
:100AC0004601C8B2FFF74DFFFFF7DAFE0DE0012C3B
:100AD00004D10020FFF7A2FF287003E00120FFF7F8
:100AE0009DFF28706D1C601EC4B2002CEFD1FFF773
:100AF000A7FE0020CEE770B505460E460024FFF79E
:100B000071FE2846FFF72DFF641CFFF7B9FE304643
:100B1000FFF727FF641CFFF7B3FEFFF763FE691CB6
:100B2000C8B2FFF71EFF641CFFF7AAFE0020FFF704
:100B300075FF0446FFF784FE204670BD2DE9F041A5
:100B40000746884615461E460024FFF74BFE3846EA
:100B5000FFF707FFFFF794FE4046FFF702FFFFF79E
:100B60008FFEFFF73FFE791CC8B2FFF7FAFEFFF7D2
:100B700087FE00BF0DE0681EA04204D00120FFF7F1
:100B80004DFF305503E00020FFF748FF3055601C53
:100B9000C4B2AC42EFDBFFF753FE2046BDE8F08164
:100BA00000100240040C0140A48121420080214237
:100BB0002DE9F04180460D4616461F460024FFF7FA
:100BC00011FE4046FFF7CDFEFFF75AFE2846FFF71D
:100BD000C8FEFFF755FE00BF06E0385DFFF7C1FE17
:100BE000FFF74EFE601CC4B2B442F6DBFFF728FEEE
:100BF0000120BDE8F08170B505460E461446314629
:100C00002846FFF778FF2070012070BD37B50446F5
:100C10000D4602AB012229462046FFF7C9FF3EBD23
:100C20002DE9F8430746884614461D46089E6A4645
:100C300041463846FFF7DFFF28B3601CFF2101FA69
:100C400000F0C4F108012944491EFF220A41104363
:100C500000F0FF09C5F1080006FA00F0C6B2C4F1C1
:100C6000070006419DF8000000EA090000909DF889
:100C70000000304300909DF8002041463846FFF7C1
:100C8000C5FFBDE8F8830020FBE7F8B506460F4630
:100C900014461D466A4639463046FFF7ACFF2DB173
:100CA0000120A0409DF80010084305E00120A0406D
:100CB0009DF8001021EA0000C0B200909DF80020CD
:100CC00039463046FFF7A2FFF8BD000008B5802086
:100CD00000906B4601226B216820FFF76FFE4FF4F6
:100CE000FA70FFF7E3FA002000906B4601226B21B7
:100CF0006820FFF763FE002000906B4601226C2104
:100D00006820FFF75BFE062000906B4601221A2147
:100D10006820FFF753FE102000906B4601221B2134
:100D20006820FFF74BFE182000906B4601221C2123
:100D30006820FFF743FE022000906B460122372116
:100D40006820FFF73BFE002000906B4601226A21DD
:100D50006820FFF733FE08BD70B505460C462346F4
:100D6000012229466820FFF78BFE2678300206B262
:100D7000681CC1B2234601226820FFF781FE20785B
:100D80000643304670BD08B569463B20FFF7E4FFD7
:100D90000749088069463F20FFF7DEFF05490880C4
:100DA00069464520FFF7D8FF0349088008BD0000C9
:100DB000080000200A0000200C0000207CB5054639
:100DC0000C46FAA000680190F9A00068009002218A
:100DD00001A8FFF704FCE1B22846FFF700FC02215E
:100DE0006846FFF7FCFB7CBD2DE9F04F85B08346DC
:100DF0008A46504601F078FA05464FF08E4101F0E0
:100E000075F90446EB4901F0CFFA0490049801F01B
:100E1000D3F88046E8480CC8404600F0E3FF064699
:100E2000E64AE74B00F0D4FE04460D46E54800686C
:100E300001F0C2F822462B46CDE9000100F0A8FCE3
:100E4000CDE9020100F072FCDE490860DE498868E5
:100E500001F0B2F804460D46DB49486801F0ACF8F1
:100E60008046DA4ADA4B00F0B1FF064622462B46AE
:100E700000F0B8FFCDE9020100F058FCD549086048
:100E8000D148C168002001F097FBD2494860CE48A4
:100E9000C168002001F090FBCE498860CE48C86050
:100EA000086801F089F8C54AC54BCDE9020100F098
:100EB0008FFE04460D46C449086801F07DF80646D9
:100EC00022462B4600F064FC804600F02FFCBE4911
:100ED0000860C049486801F06FF8B84AB84BCDE9DE
:100EE000020100F075FE06460F46B749486801F05A
:100EF00063F8804632463B4600F04AFC044600F068
:100F000015FCB1494860B349886801F055F880463E
:100F1000AA4AAB4B00F05CFE04460D46AA4988681D
:100F200001F04AF8064622462B4600F031FCCDE996
:100F3000020100F0FBFBA4498860A649C86801F0E3
:100F40003BF806469D4A9E4B00F042FE04460D4685
:100F50009D49C86801F030F8804622462B4600F0D3
:100F600017FCCDE9020100F0E1FB9749C860954804
:100F70000168584601F020FB044601F01DF8974A2D
:100F800003C29149086801F017F8954A03C28E49D7
:100F9000886801F011F8934A03C291480CC892483E
:100FA000924900F0F5FB924A03C291488C490CC863
:100FB00003C900F09DFC8F4A03C28D4889490CC8C3
:100FC00003C900F095FC8C4A03C2854903C98B4ACA
:100FD00003C27D49486800F0EFFF894A03C2874891
:100FE00084490CC803C900F0F3FD06460F46764954
:100FF000086800F0E1FF804632463B4600F0F2FE12
:10100000044600F093FB704908607D4879490CC89C
:1010100003C900F0DDFD06460F466B49486800F045
:10102000CBFF804632463B4600F0DCFE044600F033
:101030007DFB6549486071486F490CC803C900F0E1
:10104000C7FD804689466049886800F0B5FF0646BE
:1010500042464B4600F0C6FE044600F067FB5A4984
:101060008860674864490CC803C900F0B1FD0646B2
:101070000F465549C86800F09FFF804632463B4600
:1010800000F0B0FE044600F051FB4F49C8605348E1
:1010900058490CC803C900F09BFD80468946494861
:1010A000006800F089FF064642464B4600F070FBA0
:1010B000044600F03BFB4349086048484E490CC8D1
:1010C00003C900F085FD04463B480CC8204600F0EB
:1010D0005FFB394A03C2049800F06EFF06463648AB
:1010E0000CC8304600F07EFE044600F01FFB454968
:1010F000086005B0BDE8F08F2DE9FC5FFFF743FE07
:101100004148B0F9000000F04BFD06460F463F484D
:10111000B0F9000000F044FD804632463B4600F046
:1011200045FA044600223A4B00F052FD8246394A05
:10113000394B00F0DDFBCDE9000100F0F7FA37494B
:10114000086037493548006801F0FAF902D234489E
:101150003249086033493148006801F0F1F802D2A1
:1011600030482E49086030480088404201B22B4880
:101170000068FFF739FE2948006801F079F840B2AD
:101180002A4908700F48006801F072F840B22749F8
:1011900048701C48006801F06BF840B22349887021
:1011A00002212248FFF70AFEBDE8FC9F03FC000075
:1011B000FC03000000007A44300000207B14AE479E
:1011C000E17A743F100000202000002048AFBC9A54
:1011D000F2D76A3E7800002077CC2B32380000200E
:1011E00040000020480000202D431CEBE2361A3F4F
:1011F00050000020580000206000002068000020FF
:1012000070000020140000200A00002008000020C8
:1012100000806640F1D4C853FB210940180000202B
:101220000000B4420000B4C20C0000201C000020EA
:10123000704770477047704770470000004870471C
:10124000880000207546FFF7F9FFAE4605006946A5
:10125000534620F00700854618B020B5FEF7A6FFDC
:10126000BDE820404FF000064FF000074FF00008A7
:101270004FF0000B21F00701AC46ACE8C009ACE828
:10128000C009ACE8C009ACE8C0098D46704710B58C
:101290000446AFF300802046BDE81040FEF76DBF66
:1012A000490050EAC12018BF04204A0D18BF40F081
:1012B000010040F2FF72B2EB515F08BF40F0020044
:1012C000012808BF052070472DE9F0414F1E00EBB3
:1012D000C7010446D1E9000115461E4637F0060253
:1012E0000DD02A46334600F073FC7F1E04EBC70383
:1012F000D3E9002300F04CFA37F00602F1D1022FB7
:1013000025D0042F13D0062F18BFBDE8F0812A4640
:10131000334600F05DFCD4E90A2300F039FA2A468E
:10132000334600F055FCD4E9082300F031FA2A4690
:10133000334600F04DFCD4E9062300F029FA2A4692
:10134000334600F045FCD4E9042300F021FA2A4694
:10135000334600F03DFCD4E9022300F019FA2A4696
:10136000334600F035FCD4E90023BDE8F04100F03D
:101370000FBA012201F0C7B900F00ABA024A0020F0
:10138000110701F0C0B9000001FDFFFF2DE9F84F82
:1013900004460D4621F0004000917349814211DC62
:1013A0007249884201DC06D12CB120462946BDE8AD
:1013B000F84FFFF7DEBF6E48002DCCBF6D496E4978
:1013C000BDE8F88F6D49814211DD6D498142D8BF7A
:1013D0004FF0FF366DDD20462946FFF761FF0428F8
:1013E00008BFFFF7CBFF20462946BDE8F88F6549C7
:1013F000654F25F00045814233DD6449814219DDA6
:10140000002632464FF080432046294600F0C0F9BE
:1014100080468A4601222046294601F074F90022BE
:101420003B4600F0DFFC4246534600F061FA0446BA
:101430000D463EE001260022BA463B46204629469C
:1014400000F0A6F980460F46002253462046294662
:1014500000F0C8FC42463B4600F04AFA04460D46FE
:1014600027E04B4981421BDDDFF828A1022600223C
:1014700053462046294600F0ABFB00223B4600F0D5
:1014800087F980460F46002253462046294600F041
:10149000A9FC42463B4600F02BFA04460D4608E004
:1014A000032622462B4600203B4900F021FA044641
:1014B0000D4622462B461046194600F089FB8B4606
:1014C000824602460B4600F083FB0746024633483D
:1014D00088460B4606217844FFF7F6FE52465B46E7
:1014E00000F076FB82462E488B463A46434605215D
:1014F0007844FFF7E9FE3A46434600F069FB0246AE
:101500000B46002E504659460CDA00F041F92246AF
:101510002B4600F05DFB01B022462B46BDE8F04FA4
:1015200000F054BC00F034F922462B4600F050FB8A
:101530001C4A7A4402EBC603D3E9002300F052FCB4
:1015400022462B4600F04EFC174A7A4402EBC603B3
:10155000D3E9002300F03AFC009A002AB8BF81F0DA
:101560000041BDE8F88F0000000010440000F07F4B
:10157000182D4454FB21F93FFB21F9BF0000DC3F4B
:101580000000203E0000F33F0000F03F0000E63F77
:10159000008003400000F83F0000F0BF2613000069
:1015A000E4120000821200004A1200002DE9F04D02
:1015B0009446CCF1000423F000464CEA0404524F58
:1015C00046EAD4749A46884621F00042BC4206D8C6
:1015D000454240EA050442EAD474BC4204D9BDE85D
:1015E000F04D6246FFF7C8BEAAF14055A5F17F65F0
:1015F00055EA0C040BD0022404EAAA74434DDFF828
:1016000010E144EAD87452EA000B04D00CE0BDE8C3
:10161000F04DFFF7BBBE002C14BF012CBDE8F08DD0
:10162000022C30D0032C32D056EA0C0B0AD0BE422A
:1016300020D1BA4209D126F0804622F080423346BA
:10164000114617E000291ADB25E0DFF8C8B0FB449B
:10165000002C04BFDBE90001BDE8F08D012C02BFC6
:10166000DBE9000181F00041BDE8F08D022C0AD0D9
:10167000032C0CD0BA4212D1B8F1000F0BDA234878
:101680002549BDE8F08D28462449BDE8F08D28465F
:101690007146BDE8F08D1D482149BDE8F08D921BD3
:1016A00012153C2AC4BF19481D490EDCBAF1000FBF
:1016B000BEBF12F13C0F0020014606DB624600F07F
:1016C00017F921F00041FFF761FE002C08BFBDE8CB
:1016D000F08D012C04BF81F00041BDE8F08D114A6E
:1016E000114B022C07D000F07DFB2A46BDE8F04DDF
:1016F0000A4B00F077BB00F075FB2A46BDE8F04DC1
:10170000064B00F063BB00000000F07F182D44542E
:10171000FB2109C0DE110000FB21F9BFFB210940BC
:10172000FB21F93F075C143326A6A13C21F00042BF
:10173000A2F16052B2F5801F01F0004328BFD2F140
:101740007F6C0BD95FEA001C43EAC20242EB507087
:1017500018BF704728BF20F001007047B2F5801F06
:10176000BCBF184670474FEA410C1CF5001F02D25F
:10177000084600F0E0BE70B500F0D4FA0000008921
:10178000FFF7F6BF4FF00040A0F580007047000063
:1017900010B591EA030F48BF83F0004300F12A839C
:1017A000841A71EB030C05D2121943EB0C03001BD6
:1017B00061EB0C01DFF824E14FEA1154A4EB135C58
:1017C0001EEA430F18BF9EEA445F73D023EA0E035C
:1017D000DCF1200E21EA045143F4801332D322FAC3
:1017E0000CFE10EB0E0023FA0CFE41EB0E01CCF1C7
:1017F000200E03FA0EFE10EB0E0051F10001B1F5C0
:10180000801FCCF1200E32D201EB045112FA0EF2FD
:10181000BDE8104058BF7047401C38BF5FEA420225
:1018200018BF7047002814BF20F0010041F10001EB
:101830004FEA410313F5001F38BF7047A1F1C041C3
:1018400000F0BEBA012A43EB0302ACF1200CDCF13C
:101850001F0E32BF4FF0000E23FA0CF310EB030003
:1018600041EB0451B4EB115FD0D0A1EB045101F571
:10187000801149085FEA300001EB04510ED350F1AA
:10188000000038BF12FA0EFE08D1BDE81040C9E7CB
:10189000401C38BF5FEA4202CAD1C3E7BDE810402E
:1018A0004FEA410313F5001F38BF7047A1F1C04153
:1018B00000F086BA9EEA445F08D011EA5E0FBDE8E8
:1018C000104004BF01F0004100207047BDE8104007
:1018D00070B500F027FA00BF64FBBE3E0000E0FFD9
:1018E00002494FF0000000F0DCBE00BF0000F87FAE
:1018F0002DE9C04130B4DFF8A0C23CEA111418BF92
:101900003CEA131400F0EC8081EA03051CEA111490
:1019100044EAD57418BF1CEA131500F0C780A4EB85
:1019200005044FF0004545EAC12145EAC32341EAD9
:10193000505143EA525304F17F74994204F5003444
:101940004FEAC0204FEAC22208BF904200F09C80BC
:101950004FEA13650FF24016765D4FEA134506FB1A
:1019600005F7C7F1807706FB07F74FEAD737A7FBE4
:1019700003687642C8F58038A7FB06CE38BFA8F1C9
:10198000010807FB08E64FF0000EA6FB028CE6FB01
:1019900003CEDCF1000CCEF1004E38BFAEF1010EEB
:1019A000A6FB0C584FF000074FF00005E6FB0E8732
:1019B000A1FB08C6A0FB07CE16EB0E0645F10005FD
:1019C000E1FB076515F1E04E7EBFA4F580345FEAC8
:1019D00046066D4116F1800745F100054FEA1727CD
:1019E0004FEA066647EA0567A6F1DE46B6F1805F74
:1019F0004FEA15251FD9384624F0010C05EBC471B8
:101A0000BCF1FE6F01EB0C1102D8F0BCBDE8008107
:101A100024425CBF01F5801E9EEAC47F02D4F0BC64
:101A2000BDE80081244238D4F0BCA1F1C041BDE83A
:101A3000004100F0C5B94FEAD22242EA43524FEAD0
:101A4000D323A7FB02864FEAD02040EA415007FB90
:101A500003661EEA0E0F4FEAD12105FB026658BF4E
:101A6000A6EB0056B6EB00564FEA520E4EEAC37E86
:101A700018EB0E0E56EB530EBDD518EB02085E4167
:101A80007F1C55F10005B6E74FF480154FF00007B5
:101A90004FF000064FF00008ADE7F0BC4FF000003B
:101AA00001F1C04101F00041BDE8008111EA0C1FC5
:101AB0000CEA131500D00CE013EA0C1F00F025808F
:101AC0004FF00000F0BC81EA030101F00041BDE8E5
:101AD0000081F0BCBDE8004181EA030100F070B96B
:101AE000F0BCBDE8004170B500F01CF9097EFC3E79
:101AF00000F007B881EA03014FF0000001F0004157
:101B0000704781EA030100F05BB9F0BCBDE8004119
:101B10004FF0000021497047FFFDFBF9F7F5F4F2A3
:101B2000F0EEEDEBE9E8E6E4E3E1E0DEDDDBDAD878
:101B3000D7D5D4D3D1D0CFCDCCCBCAC8C7C6C5C4D6
:101B4000C2C1C0BFBEBDBCBBBAB9B8B7B6B5B4B3ED
:101B5000B2B1B0AFAEADACABAAA9A8A8A7A6A5A4D8
:101B6000A3A3A2A1A09F9F9E9D9C9C9B9A9999989C
:101B70009797969595949393929191908F8F8E8E3F
:101B80008D8C8C8B8B8A89898888878786858584CC
:101B900084838382828181800000FF070000F87FB8
:101BA00010F0004248BF4042B0FA80F310FA03F14F
:101BB0000AD0C3F11D0303F580634FEA415002EBE5
:101BC000035202EBD12170474FF000007047000034
:101BD000DFF848C170B51CEA111E1EBF1CEA1315C0
:101BE0009EEA0C0F95EA0C0F00F06F8081EA030467
:101BF00023EA4C134EEAD47E21EA4C1141F48011C1
:101C000043F48013AE44A1FB024CA0FB0365AEF18C
:101C10007F7E361955EB0C05A1FB034C4CF10003FC
:101C2000A0FB021C16EB0C06654153F100030942B0
:101C300018BF46F0010613F4007F0BD14FEA0331C1
:101C40004FEA0530340341EA155140EA16506FF06F
:101C500003020AE04FEAC3214FEAC520F40241EA39
:101C6000555140EA56506FF0020202EB2E4201EB52
:101C7000025585EACE710AD05FEA440C18BF24F001
:101C8000004450F1000041F1000120EAD47040F21C
:101C9000FE7C624500D270BDA84214BF4FF0804464
:101CA0004FF04044002E08BF0024BEF1806FA8BF53
:101CB000A1F1C041BDE8704080F282804FF0000089
:101CC00001F1C04101F0004170479EEA0C0F0CEA9F
:101CD000131518BF95EA0C0F06D04FF0000081EAEB
:101CE000030E0EF0004170BD00F01CF88900013EAB
:101CF00000F007B800F009B84FEA430C5FEA5C5CFB
:101D000008D081EA030100F05BB84FEA410C5FEABA
:101D10005C5CF6D14FF00000014970470000FF07FE
:101D20000000F87F0EF1020E2EF0030E5EF8046B39
:101D3000364205D4012A43EB030515F5001F12D8DE
:101D4000012841EB010C1CF5001F0CD80ED14FEA05
:101D5000D17C15F5001F0CEB4C0C0CF1020C08BFEC
:101D60004CEBD37C04E04FF0080C01E04FEAD37C4D
:101D70000CEB4C0526FA05F606F00706B6F1040C46
:101D800006D20EEB860CBDE870404CF0010C6047AB
:101D9000DFE80CF0090B02024FF000414FF00000A9
:101DA000A1F5002170BD19461046012851EB010430
:101DB00018BFD4F5001484BF002001F0004170BDAD
:101DC0000808A0F500114FEA3101704791EA030FAE
:101DD00010B581F000413FF5E3AC83F0004300F023
:101DE00009B8000010B591EA030F48BF83F0004323
:101DF0003FF5D6AC841A71EB030C07D212198CF0A4
:101E0000004C43EB0C03001B61EB0C01DFF8A4E179
:101E10004FEA1154A4EB135C1EEA430F18BF9EEA6D
:101E2000445F00F0B08023EA6E03524221EA04517D
:101E3000C3EB6E0338BF5B1EDCF1200E25D322FA04
:101E40000CFE10EB0E0043FA0CFE41EB0E01CCF140
:101E5000200E03FA0EFE10EB0E0051F10001CCF142
:101E6000200E29D412FA0EF201EB0451BDE8104005
:101E700058BF7047401C1CBFB2F1004F704700288C
:101E80000CBF491C20F00100704712EB020E43EB1F
:101E9000030218BF4FF0010E4EEA4202ACF1200CD3
:101EA000DCF11E0E54D943FA0CFE10EB0E0051F17A
:101EB000FF31CCF11E0ED5D50EF1010E12FA0EFE39
:101EC000404141EB010101EB445C5FEA5C5C10D9ED
:101ED00010EBDE7001EB045138BFBEF1004FBDE8DE
:101EE000104018BF704700280CBF491C20F00100AB
:101EF000704730D24FEAD42C11F5001124F400645D
:101F00001BD0B1FA81F20B3AA41AA41ED2F120031D
:101F1000914030FA03F31943904001EBCC71002C4F
:101F200001EB0451BDE81040A8BF704701F1C0416A
:101F30004FF0000001F000417047B0FA80F310FA52
:101F400003F100D110BDE41A173C4805C90AE4E7C3
:101F500001EB045110BD491001EB0451BDE81040E4
:101F60004FEA300002E04FF0000170474A0008BF1E
:101F70000042F8D0B2F5001F28BF704701F00041C1
:101F80004FF0000070479EEA445F07D011EA5E0FF1
:101F9000BDE8104004BF002100207047BDE810409C
:101FA00070B5FFF7BFFE00BF40DFF63E83F0004193
:101FB000104670470000E0FF43004FEAD30C4FEAA1
:101FC0003C0C43401FBF40070CF1605113F0FE4F23
:101FD00070471CF0006F03D100200CF000417047E7
:101FE0000CF0004343EA507010B540EACC0000F01A
:101FF0005CFA00BF000000924FEA0001FFF7E0BE6C
:102000004FF000414FF00000A1F5002170470000A3
:1020100090EA010F48BF81F0004100F1D482421ADA
:102020003CBF801A89184FEAD0524FF07F4C1CEA0F
:10203000410FA2EBD15318BF9CEA026F00F03B8026
:102040004FF0004C4CEA00204CEA012121FA03FC3D
:1020500010EB0C0C1ED202F1FF325FEA1C2040EBA9
:10206000C25038BF70471CF07F0F4FEA400C18BFBA
:10207000BCF17F4F38BF7047C3F12003994008BFC0
:1020800020F00100BCF17F4F38BF7047A0F1C04085
:1020900000F051BA4FEA3C00000A40EBC25028BFA2
:1020A0001CF0FF0F4FEA400CE6D018BFBCF17F4F89
:1020B00038BF7047EAE79CEA026F05D010EA5C0F70
:1020C00008BF00F00040704710B500F0EEF900BF07
:1020D00064FBBE3E401058BFC0F14040491058BF9D
:1020E000C1F140418142EFF3008070474FF47F0C13
:1020F0001CEAD0121EBF1CEAD11392EA0C0F93EA1D
:102100000C0F00F0858090EA010F48BF42F4807206
:1021100040F4000C41F400002CF07F4120F07F409F
:1021200000B58142A2EB03020FF2081CACEB504E4B
:10213000C0F100009EF800E04FEA4E0E00FB0EFCDE
:1021400038BF49004FEA2C1C02F5FA020CFB0EF3D3
:102150004FEACE1E4FEA112C4FEAC1210EEB635E0F
:1021600042EB22420EFB0CFC4FEA1C5300FB031116
:102170004FEA112C4FEA01310EFB0CFC4FEADC4C0C
:1021800000FB0C11C14228BF09184CEB03335DF86A
:1021900004EB10EB410143EBC250B2F57C0F38BFAA
:1021A000704729D512F0F00F1CBF00F1C04000F0BD
:1021B00000407047008182838485868788898B8C64
:1021C0008D8E8F919293959697999A9C9D9FA0A2A0
:1021D000A3A5A7A8AAACAEB0B2B3B5B7B9BCBEC0F0
:1021E000C2C5C7C9CCCED1D4D7D9DCDFE2E6E9EC91
:1021F000F0F3F7FAFE0000004FEA400C0CF1807C8F
:10220000BCF17E4F28BF7047B0F1C04000F093B9D9
:1022100090EA010F0CEAD11348BF42F48072624584
:1022200038BF634507D213F47F0F16D080EA010050
:1022300000F00040704710B500F037F9097EFC3E11
:1022400000F005B880EA010000F00040704780EA25
:10225000010000F0004000F06EB912F47F0F04BFDF
:102260000248704780EA010000F065B90000C07FB5
:1022700041000B0ED3F19E0208D950F400034FEA3F
:10228000032323FA02F048BF4042704710B500F024
:102290000CF900BF49922480002070476FF0004283
:1022A00082EA200070470000C10DD1F19E0206DBDA
:1022B0004FEA002343F0004323FA02F07047004244
:1022C00007D54FEA4001B1F1FE4F02D24FF00000B6
:1022D000704710B500F0E9F849922480002070475B
:1022E0006FEA20007047000010F0004148BF4042F4
:1022F000B0FA80F310FA03F2C3F19D030BD051EA58
:10230000C35101EB1220530638BF704700F10100A2
:1023100008BF20F001007047B0FA80F310FA03F212
:10232000C3F19D030AD0D90501EB1220530638BF33
:10233000704700F1010008BF20F001007047000065
:1023400050EA010C00F113801CF5000F58BFBCF5DA
:10235000000F01D48842704707D710F5000F58BF0F
:1023600011F5000F15D488427047894270471CF55B
:10237000000F04D5BCF5000FF7D5814270474FF030
:10238000807C1CEB400F38BF1CEB410F01D2814217
:10239000704710B500F089F8922449004FF00050C2
:1023A0004FF08051FFF796BE4FF47F0C1CEAD0121D
:1023B0001EBF1CEAD11392EA0C0F93EA0C0F00F037
:1023C000478090EA010F48BF42F480724FF0004C02
:1023D0004CEA00204CEA012102EB0302A0FB0113AE
:1023E000A2F50002002918BF43F001035B0028BFDB
:1023F0004FEA330342EB22425FEA132C4CEBC2500C
:102400002EBFBCEB436FB2F57C0F70474FEA036CF5
:10241000BCF1004F08BF20F00100B2F57C0F38BFBF
:1024200070470BD582F0FF0212F5803FC8BF70479E
:1024300000F1C040D8BF00F00040704700F5000C2C
:102440005FEA4C0C48BF7047B0F1C04000F073B871
:1024500090EA010F0CEAD11348BF42F48072624542
:1024600038BF634504D280EA010000F000407047A5
:1024700010B500F01AF800BF8900013E00F007B85F
:1024800000F009B85FEA410C5FEA1C6C08D080EAF2
:10249000010000F050B85FEA400C5FEA1C6CF6D116
:1024A0004FF00040A0F5800070470EF1020E2EF0B4
:1024B000030E5EF8044B244204D44FEA4102B2F109
:1024C0007F4F11D84FEA4003B3F17F4F0CD80ED1A4
:1024D0004FEAD07CB2F17F4F0CEB4C0C0CF1020CAC
:1024E00008BF4CEBD17C04E04FF0080C01E04FEA50
:1024F000D17C0CEB4C0324FA03F404F00704B4F190
:10250000040C06D20EEB840CBDE810404CF0010C1C
:102510006047DFE80CF0070802024FF00040A0F52A
:10252000800010BD0846420018BFD2F1807288BFFB
:1025300000F0004010BDFF2141EAD050C0057047B7
:1025400051EA000C00F113801CF5000F58BFBCF5D8
:10255000000F01D48142704707D711F5000F58BF13
:1025600010F5000F15D481427047894270471CF561
:10257000000F04D5BCF5000FF7D5884270474FF027
:10258000807C1CEB410F38BF1CEB400F01D288420E
:10259000704780EA010081EA000180EA0100FFF74C
:1025A000F8BE80F0004090EA010F7FF538AD81F071
:1025B000004100F008B8000090EA010F48BF81F028
:1025C00000413FF52CAD421A04D882F00042A0EB46
:1025D000020011444FEAD0524FF07F4C1CEA410FE9
:1025E000A2EBD15318BF9CEA026F4AD04FF0004CC7
:1025F0004CEA00204CEA012121FA03FCB0EB0C0C60
:102600000FD412F0FE0F36D05FEA4C001DD5001239
:1026100040EBC25038BF70471CF03F0F18BF7047E7
:102620000BE0A2F101025FEA1C2040EBC25038BF70
:1026300070471CF07F0F18BF7047C3F1200399400B
:1026400014BF401E20F00100704780084FEA12239B
:1026500008BF7047B0FA80FCA2EB0C02CCF1280C4A
:1026600060FA0CF093EA122F04BF00EBC2507047DF
:102670004FEAC3707047130A5FEADC1008BF704767
:10268000F6E79CEA026F04D010EA5C0F08BF002056
:10269000704710B5FFF709FF40DFF63E81F00040BC
:1026A00070470CF00F03092B08BF082000F0598079
:1026B0000A2B0BD0082B18BF704708BF1CF0400F27
:1026C0000AD04FF000004FF0000170471CF0400F9F
:1026D00018BF4FF0004070471CF0100F08D020F0DA
:1026E000704300F07F4242EAD3014FEA43707047E3
:1026F00000F0604021F07F4242EA000201F07F409A
:1027000040EA727070474FF0FF0C4CF4E06C1CEA2A
:1027100011531CBF9CEA030C9445C2BFDA4201EB83
:1027200002517047002B0DD0BCF1000F0FD0002AD2
:1027300001F00041A4BF41F0E04141F07F614FF062
:102740000000704701F000414FF00000704750EA70
:1027500001334FF09B0C18BF4CF0806C7FF4C0A885
:1027600070471CF4801F11D01CF4E02F03D06FEAD7
:10277000CC31490070474FF04050EFF3008222F017
:10278000704242EA000282F3008870474FF0000076
:1027900070470000000000004FBB610567ACDD3FE3
:1027A000182D4454FB21E93F9BF681D20B73EF3F78
:1027B000182D4454FB21F93FE2652F227F2B7A3CF0
:1027C000075C143326A6813CBDCBF07A8807703CA9
:1027D000075C143326A6913CC4EB98999999C9BF1C
:1027E000711623FEC671BCBF6D9A74AFF2B0B3BF51
:1027F0009AFDDE522DDEADBF2F6C6A2C44B4A2BF11
:102800000D5555555555D53FFF8300922449C23F7C
:102810006E204CC5CD45B73F513DD0A0660DB13FB0
:10282000EB0D76244B7BA93F11DA22E33AAD903FC2
:1028300000000000000000005828000800000020F0
:102840007800000028010008D02800087800002047
:1028500070060000440100080000000000000000B5
:102860000000000000000000000000000000000068
:1028700000000000000000000000003F0000000019
:10288000000000000000003F000000000000000009
:102890000000000000000000000000000000000038
:1028A0000000000000000000000000000000000028
:1028B0000000000000000000000000000000000018
:1028C0000000000000000000000000000000000008
:04000005080000ED02
:00000001FF
