:020000040800F2
:10000000780600209D010008A1010008A301000856
:10001000A5010008A7010008A901000800000000D0
:10002000000000000000000000000000AB0100081C
:10003000AD01000800000000AF010008B101000898
:10004000B3010008B3010008B3010008B3010008C0
:10005000B3010008B3010008B3010008B3010008B0
:10006000B3010008B3010008B3010008B3010008A0
:10007000B3010008B3010008B3010008B301000890
:10008000B3010008B3010008B3010008B301000880
:10009000B3010008B3010008B3010008B301000870
:1000A000B3010008B3010008B3010008B301000860
:1000B000B301000871070008B3010008B30100088C
:1000C000B3010008B3010008B3010008B301000840
:1000D000B3010008B3010008B3010008B301000830
:1000E000B3010008B3010008B301000800F002F8F2
:1000F00000F03FF80AA090E8000C82448344AAF183
:100100000107DA4501D100F034F8AFF2090EBAE880
:100110000F0013F0010F18BFFB1A43F0010318473B
:10012000E012000000130000103A24BF78C878C124
:10013000FAD8520724BF30C830C144BF04680C60ED
:10014000704700000023002400250026103A28BF35
:1001500078C1FBD8520728BF30C148BF0B60704739
:10016000642900F0AF85002070471FB51FBD10B592
:1001700010BD00F06FFE1146FFF7F7FF00F02AF800
:1001800000F08DFE03B4FFF7F2FF03BC00F012FA9B
:1001900030BF72B662B680F30888704708480047DF
:1001A000FEE7FEE7FEE7FEE7FEE7FEE7FEE7FEE727
:1001B000FEE7FEE703480449044A054B7047000088
:1001C000ED0000087800002078060020780200206A
:1001D00078020020092000F094F9482000F034F85B
:1001E0004FF4FA6000F068F800F08CFA00F06EFA54
:1001F0004FF4E131482000F006FA00F0C9FB64201A
:1002000000F05AF800F098FC12E00A48007878B143
:100210000020084908700848006808B9012000E07B
:1002200000200549086000F0E4FC04A000F00AFD8D
:10023000EBE700000A000020B401224252756E6E06
:10024000696E670A000000004FF0E021096921F0A3
:1002500004014FF0E0221161C21700EB5272C2F3A9
:10026000C702234B1A701946097801EB4102C2EB11
:10027000C1114FF6FF7202EAC1011E4A1180704798
:1002800001461B4A12784A434FF0E0235A6100228C
:100290009A6101221A6100BF4FF0E022106900F05C
:1002A00001021AB100F48032002AF5D000224FF08A
:1002B000E0231A619A61704701460E4A12884A4348
:1002C0004FF0E0235A6100229A6101221A6100BFB7
:1002D0004FF0E022106900F001021AB100F4803200
:1002E000002AF5D000224FF0E0231A619A6170478E
:1002F0000000002002000020A34A0A400243A34B52
:100300001A6070470146072323EA010212029F4B3D
:100310001B1D18684FF6FF0318409D4B18431043F0
:100320009A4B1B1D186070472DE9F041074688461F
:1003300014461D462846FFF7E5FFC5F1040007FAFD
:1003400000F60F20284100EA0800064306F00F06D9
:10035000E21704EBD2625211920002F1E022D2F8CD
:1003600000212146E31704EBD3635B11A4EB431C8C
:10037000012303FA0CF31A432046E31704EBD3637B
:100380005B119B0003F1E023C3F800218148005D6D
:1003900040EA06107F490855BDE8F08170B5044673
:1003A0000B46CE1701EB9676C6F38700CE1701EB0E
:1003B0009676B610A1EB8606B606350E764B9B698F
:1003C00043F00103744EB3614FEAB63353F8203063
:1003D0000F26AE40B343714E46F82030334653F8F3
:1003E000203004FA05F61E436C4B43F820606C4B3A
:1003F0001B6801268E403343694E336002F00103CF
:1004000043B1674B0C331B6801268E403343644E67
:100410000C36336002F0020343B1614B08331E68AF
:1004200001238B401E435E4B08331E6070BD00B538
:10043000002059490861C860142048610020886183
:10044000C8610846006840F001000860084640683E
:1004500054490840504948600846006852490840DD
:100460004D4908600846006820F48020086008466E
:10047000406820F4FE0048600020886000214FF0B2
:100480000060FFF739FF00BD10B540480830006834
:1004900040F004003D49083108603F48C06940F021
:1004A00080503D49C8614148406840F480703F49F0
:1004B00048600846006840F004000860084600688C
:1004C00040F002000860FFF763FE10BD3048001DD9
:1004D0002E49091D08607047014649062E4A926957
:1004E00042F001022C4B9A612C4A083A526822F0E1
:1004F000E0622A4B083B5A601A4652680A435A6027
:10050000704730B504460025FFF791FF2248006888
:1005100040F480302049086000BF1F480068400C4C
:100520000028FAD04FF480601B494860A01EC4B276
:100530000846406840EA844048600846406840F405
:10054000803048601A48006840F03200184908605E
:100550001148006840F080700F49086000BF0E48E5
:100560000068400E0028FAD00B48406840F00200B6
:100570000949486005E008484068C0F3870505F070
:100580000305022DF7D130BD80FFFF1F08ED00E00D
:100590000000FA0500E400E00010024008000140FD
:1005A000000401400000FFF8FFFFF6FE007000406D
:1005B00000200240014600BF0020704700BF3F4AB4
:1005C000128802F04002002AF9D0C2B23B4B1B1D38
:1005D0001A8070473949091D088000BF37490988CA
:1005E00001F040010029F9D0704700B502460B46E2
:1005F00003E01078FFF7EEFF521C181EA3F1010173
:10060000CBB2F6D100BD2DE9F05F05460E463001B4
:1006100000F096FD81462A4905FB01F000F090FDAF
:100620008246494600F0AAFC0746384600F068FDBD
:1006300084B2204600F084FD8346394600F060FE17
:1006400082464FF0834100F08FFD814600F058FD57
:1006500080464FF6FF7000EA041404EB080084B2F1
:100660001848806940F0040016498861084680698E
:1006700040F4804088611448006820F47F6012498B
:1006800008600846006840F40B6008600D48C068C8
:1006900040F480400B49C8600846C06820F48040A0
:1006A000C860064808300480001D008842F20C0132
:1006B000084302490C310880BDE8F09F0038014032
:1006C00040420F0000100240040801400B488069BE
:1006D00040F01000094988610948406820F4700022
:1006E000074948600846406840F4401048600846A2
:1006F000C06840F40050C86070470000001002401D
:100700000010014010B52C48C06940F002002A4991
:10071000C86141F61F40294908803120091D088021
:1007200000202649091F088024482838008840F006
:10073000800022492839088020481C38008840F071
:1007400001001E491C3908800846008840F040001E
:1007500008801A482838008840F0010017492839D5
:10076000088000231D2203210120FFF7DDFD10BDBD
:10077000124818380088E8B100201049183908805C
:1007800001200F4908700F480078401C0D4908707F
:1007900008460078642190FBF1F201FB120010B9C9
:1007A00001200949087007480078C82802D10020B4
:1007B00004490870704700000010024028040040FF
:1007C00009000020080000200A00002010B50120C8
:1007D000FFF756FD10BD10B50120D3490860D3497D
:1007E000C1F8A001FFF7F2FFCF488038006808B9D0
:1007F000002010BD0020CC490860FFF7E7FFCB4880
:10080000D0F8240108B10020F3E70020C6490860B1
:10081000FFF7DCFF0120ECE710B50020C249091FFB
:100820000860FFF7D3FF0020C049C1F8A401FFF71B
:10083000CDFF0120BC49091F0860FFF7C7FF012059
:10084000BA49C1F8A401FFF7C1FF10BD10B50020DF
:10085000B549091F0860FFF7B9FF0020B349C1F887
:10086000A401FFF7B3FF0120AF49091F0860FFF79C
:10087000ADFF0020AD49C1F8A001FFF7A7FF10BDF3
:1008800010B50020A849091F0860FFF79FFF01204D
:10089000A649C1F8A401FFF799FF0120A249091F49
:1008A0000860FFF793FF0020A049C1F8A001FFF7FF
:1008B0008DFF10BD10B500209B49091F0860FFF790
:1008C00085FF01209949C1F8A401FFF77FFF0120AE
:1008D0009549091F0860FFF779FF9448D0F8240173
:1008E00020B100209049091F086010BD00208E49EA
:1008F000091F08600120F8E770B50446082519E0D3
:1009000000208949091F0860FFF760FF04F080009C
:1009100018B101208449086002E000208249086083
:100920006006040EFFF752FF01207F49091F08608F
:10093000FFF74CFF281EA5F10101CDB2E0D17A49A5
:10094000091F086070BD70B5082500240120764994
:10095000086013E06006040E00207349091F086058
:10096000FFF734FF01207149C1F8A001FFF72EFF06
:100970006D488038006808B144F00104281EA5F1D4
:100980000101CDB2E6D16849091F0860204670BD5B
:100990006748806940F008006549886165480068DB
:1009A00020F0FF00634908600846006840F033000B
:1009B000086070472DE9F04105460E4617469846F7
:1009C000FFF709FF10B90020BDE8F081002141EADE
:1009D0004501C8B2FFF790FFFFF76CFF18B9FFF7AA
:1009E0001BFF0020F0E73046FFF786FFFFF762FFAE
:1009F00000240BE018F80400FFF77EFFFFF75AFF12
:100A000018B9FFF709FF0020DEE7641CBC42F1DBE8
:100A1000FFF702FF0120D7E72DE9F04104460D461C
:100A200016461F463B46324629462046FFF7C2FF80
:100A300010B10020BDE8F0814FF0FF30FAE72DE95A
:100A4000F04105460F4614461E46FFF7C4FE10B996
:100A50000020BDE8F081002141EA4501C8B2FFF75E
:100A60004BFFFFF727FF18B9FFF7D6FE0020F0E78E
:100A70003846FFF741FFFFF71DFFFFF7ACFE0121EE
:100A800001EB4501C8B2FFF737FFFFF713FF0CE09A
:100A9000FFF759FF3070012C02D1FFF7F1FE01E0A2
:100AA000FFF7D4FE761C601EC4B2002CF0D1FFF715
:100AB000B3FE0120CDE72DE9F04104460D46164670
:100AC0001F463B46324629462046FFF7B8FF10B185
:100AD0000020BDE8F0814FF0FF30FAE770B5044622
:100AE0000D461646FFF777FE08B9002070BD0021BD
:100AF00041EA4401C8B2FFF7FFFEFFF7DBFE18B979
:100B0000FFF78AFE0020F1E72846FFF7F5FEFFF722
:100B1000D1FE3046FFF7F0FEFFF7CCFEFFF77CFE7C
:100B20000120E3E700207047A48121420080214298
:100B300000100240040C014008B5802000906B4674
:100B400001226B216820FFF767FF4FF4FA70FFF76F
:100B5000B3FB002000906B4601226B216820FFF759
:100B60005BFF002000906B4601226C216820FFF79C
:100B700053FF062000906B4601221A216820FFF7E0
:100B80004BFF082000906B4601221B216820FFF7D5
:100B900043FF082000906B4601221C216820FFF7CC
:100BA0003BFF022000906B46012237216820FFF7AF
:100BB00033FF002000906B4601226A216820FFF776
:100BC0002BFF08BD70B505460C4623460122294679
:100BD0006820FFF770FF2678300206B2681CC1B2A9
:100BE000234601226820FFF766FF2078064330463F
:100BF00070BD08B569463B20FFF7E4FF0A4908804D
:100C000069463F20FFF7DEFF084908806946432018
:100C1000FFF7D8FF064908800348B0F9001005A087
:100C200000F010F808BD00000C0000200E000020AD
:100C30001000002067793D256420200A0000000094
:100C4000704700000FB4044910B503AA029800F0E1
:100C5000D3F810BC5DF814FB040000202DE9F0412E
:100C60000E460446002020622046E168884730B3E3
:100C7000252805D0D4E901219047206A401CF2E7DD
:100C8000E168204600278847050018D0A5F14100FB
:100C9000192802D820354FF40067324629462046ED
:100CA0002760FFF75DFA40B1012804D0F61D26F059
:100CB00007060836D8E7361DD6E72846DAE7206A61
:100CC000BDE8F0812DE9F041064600241068752941
:100CD000314616A510D0AFF30080002802DA40425A
:100CE00013A507E031688A0701D512A502E049077C
:100CF00004D511A5012401E0AFF3008000210A22F0
:100D000006F1240709E0B0FBF2FCB0FBF2F302FBB2
:100D10001C00303078541846491C0028F3D1234673
:100D20002A463046BDE8F04100F00CB80000000053
:100D30002D0000002B0000002000000070477047CD
:100D4000704770472DE9F0470D4699469246044694
:100D500000F124080168880604D5E06921F010013B
:100D6000216000E00120A84201DD471B00E00027D0
:100D7000A1697A1902EB0900081AA0612078C0065F
:100D800002D42046AFF30080002608E0D4E9012118
:100D90001AF806009047206A401C761C20624E45D7
:100DA000F4DB2078C0060AD52046AFF3008006E0C9
:100DB000D4E9012130209047206A401C2062381E6F
:100DC000A7F10107F4DC07E0D4E9012118F80500D8
:100DD0009047206A401C2062281EA5F10105F3DC23
:100DE0002046AFF300802078000602D50220BDE83F
:100DF000F0870120FBE70000074B70B50D467B44F0
:100E000000F011F80446284600F020F810B14FF029
:100E1000FF3070BD204670BDBBF7FFFF01694A1C63
:100E200002610878704700B58FB0CDE9013100212B
:100E3000059105497944CDE9031011466846FFF74D
:100E40000DFF0FB000BD0000E5FFFFFF007B00F0CD
:100E500080007047754600F02BF8AE4605006946E5
:100E6000534620F00700854618B020B5FFF7A2F9D9
:100E7000BDE820404FF000064FF000074FF000089B
:100E80004FF0000B21F00701AC46ACE8C009ACE81C
:100E9000C009ACE8C009ACE8C0098D46704710B580
:100EA0000446AFF300802046BDE81040FFF76AB962
:100EB000004870471400002090EA010F48BF81F0FD
:100EC000004100F12E82421A3CBF801A89184FEA75
:100ED000D0524FF07F4C1CEA410FA2EBD15318BF08
:100EE0009CEA026F00F03B804FF0004C4CEA00207F
:100EF0004CEA012121FA03FC10EB0C0C1ED202F18A
:100F0000FF325FEA1C2040EBC25038BF70471CF034
:100F10007F0F4FEA400C18BFBCF17F4F38BF7047BE
:100F2000C3F12003994008BF20F00100BCF17F4FBE
:100F300038BF7047A0F1C04000F0DDB94FEA3C0077
:100F4000000A40EBC25028BF1CF0FF0F4FEA400CD4
:100F5000E6D018BFBCF17F4F38BF7047EAE79CEA84
:100F6000026F05D010EA5C0F08BF00F00040704728
:100F700010B500F07AF900BF64FBBE3E4FF47F0C61
:100F80001CEAD0121EBF1CEAD11392EA0C0F93EA9E
:100F90000C0F00F0858090EA010F48BF42F4807288
:100FA00040F4000C41F400002CF07F4120F07F4021
:100FB00000B58142A2EB03020FF2081CACEB504ECD
:100FC000C0F100009EF800E04FEA4E0E00FB0EFC60
:100FD00038BF49004FEA2C1C02F5FA020CFB0EF355
:100FE0004FEACE1E4FEA112C4FEAC1210EEB635E91
:100FF00042EB22420EFB0CFC4FEA1C5300FB031198
:101000004FEA112C4FEA01310EFB0CFC4FEADC4C8D
:1010100000FB0C11C14228BF09184CEB03335DF8EB
:1010200004EB10EB410143EBC250B2F57C0F38BF2B
:10103000704729D512F0F00F1CBF00F1C04000F03E
:1010400000407047008182838485868788898B8CE5
:101050008D8E8F919293959697999A9C9D9FA0A221
:10106000A3A5A7A8AAACAEB0B2B3B5B7B9BCBEC071
:10107000C2C5C7C9CCCED1D4D7D9DCDFE2E6E9EC12
:10108000F0F3F7FAFE0000004FEA400C0CF1807C10
:10109000BCF17E4F28BF7047B0F1C04000F02BB9C3
:1010A00090EA010F0CEAD11348BF42F48072624506
:1010B00038BF634507D213F47F0F16D080EA0100D2
:1010C00000F00040704710B500F0CFF8097EFC3EFC
:1010D00000F005B880EA010000F00040704780EAA7
:1010E000010000F0004000F006B912F47F0F04BFC9
:1010F0000248704780EA010000F0FDB80000C07FA0
:10110000C10DD1F19E0206DB4FEA002343F00043FC
:1011100023FA02F07047004207D54FEA4001B1F1CF
:10112000FE4F02D24FF00000704710B500F09DF85E
:1011300049922480002070476FEA20007047000029
:10114000B0FA80F310FA03F2C3F19D030AD0D90577
:1011500001EB1220530638BF704700F1010008BFB1
:1011600020F00100704700004FF47F0C1CEAD01201
:101170001EBF1CEAD11392EA0C0F93EA0C0F00F089
:10118000478090EA010F48BF42F480724FF0004C54
:101190004CEA00204CEA012102EB0302A0FB011300
:1011A000A2F50002002918BF43F001035B0028BF2D
:1011B0004FEA330342EB22425FEA132C4CEBC2505E
:1011C0002EBFBCEB436FB2F57C0F70474FEA036C48
:1011D000BCF1004F08BF20F00100B2F57C0F38BF12
:1011E00070470BD582F0FF0212F5803FC8BF7047F1
:1011F00000F1C040D8BF00F00040704700F5000C7F
:101200005FEA4C0C48BF7047B0F1C04000F073B8C3
:1012100090EA010F0CEAD11348BF42F48072624594
:1012200038BF634504D280EA010000F000407047F7
:1012300010B500F01AF800BF8900013E00F007B8B1
:1012400000F009B85FEA410C5FEA1C6C08D080EA44
:10125000010000F050B85FEA400C5FEA1C6CF6D168
:101260004FF00040A0F5800070470EF1020E2EF006
:10127000030E5EF8044B244204D44FEA4102B2F15B
:101280007F4F11D84FEA4003B3F17F4F0CD80ED1F6
:101290004FEAD07CB2F17F4F0CEB4C0C0CF1020CFE
:1012A00008BF4CEBD17C04E04FF0080C01E04FEAA2
:1012B000D17C0CEB4C0324FA03F404F00704B4F1E2
:1012C000040C06D20EEB840CBDE810404CF0010C6F
:1012D0006047DFE80CF0070802024FF00040A0F57D
:1012E000800010BD0846420018BFD2F1807288BF4E
:1012F00000F0004010BDFF2141EAD050C00570470A
:1013000080F0004090EA010F7FF5DDAD81F00041F3
:1013100000F007B890EA010F48BF81F000413FF5A7
:10132000D2AD421A04D882F00042A0EB0200114470
:101330004FEAD0524FF07F4C1CEA410FA2EBD15341
:1013400018BF9CEA026F4AD04FF0004C4CEA0020D4
:101350004CEA012121FA03FCB0EB0C0C0FD412F083
:10136000FE0F36D05FEA4C001DD5001240EBC25094
:1013700038BF70471CF03F0F18BF70470BE0A2F159
:1013800001025FEA1C2040EBC25038BF70471CF0DE
:101390007F0F18BF7047C3F12003994014BF401E50
:1013A00020F00100704780084FEA122308BF704701
:1013B000B0FA80FCA2EB0C02CCF1280C60FA0CF025
:1013C00093EA122F04BF00EBC25070474FEAC3707C
:1013D0007047130A5FEADC1008BF7047F6E79CEA23
:1013E000026F04D010EA5C0F08BF0020704710B5F0
:1013F000FFF73BFF40DFF63E81F000407047000002
:10140000201400080000002014000000280100083B
:101410003414000814000020640600004401000891
:1014200000000000000000000000000000000000BC
:0414300000000000B8
:04000005080000ED02
:00000001FF
